{
  "_format": "hh-sol-artifact-1",
  "contractName": "MintNode",
  "sourceName": "contracts/mintNode.sol",
  "abi": [
    {
      "inputs": [
        {
          "internalType": "string",
          "name": "_name",
          "type": "string"
        },
        {
          "internalType": "string",
          "name": "_symbol",
          "type": "string"
        }
      ],
      "stateMutability": "nonpayable",
      "type": "constructor"
    },
    {
      "anonymous": false,
      "inputs": [
        {
          "indexed": true,
          "internalType": "address",
          "name": "owner",
          "type": "address"
        },
        {
          "indexed": true,
          "internalType": "address",
          "name": "approved",
          "type": "address"
        },
        {
          "indexed": true,
          "internalType": "uint256",
          "name": "tokenId",
          "type": "uint256"
        }
      ],
      "name": "Approval",
      "type": "event"
    },
    {
      "anonymous": false,
      "inputs": [
        {
          "indexed": true,
          "internalType": "address",
          "name": "owner",
          "type": "address"
        },
        {
          "indexed": true,
          "internalType": "address",
          "name": "operator",
          "type": "address"
        },
        {
          "indexed": false,
          "internalType": "bool",
          "name": "approved",
          "type": "bool"
        }
      ],
      "name": "ApprovalForAll",
      "type": "event"
    },
    {
      "anonymous": false,
      "inputs": [
        {
          "indexed": true,
          "internalType": "address",
          "name": "previousOwner",
          "type": "address"
        },
        {
          "indexed": true,
          "internalType": "address",
          "name": "newOwner",
          "type": "address"
        }
      ],
      "name": "OwnershipTransferred",
      "type": "event"
    },
    {
      "anonymous": false,
      "inputs": [
        {
          "indexed": true,
          "internalType": "address",
          "name": "from",
          "type": "address"
        },
        {
          "indexed": true,
          "internalType": "address",
          "name": "to",
          "type": "address"
        },
        {
          "indexed": true,
          "internalType": "uint256",
          "name": "tokenId",
          "type": "uint256"
        }
      ],
      "name": "Transfer",
      "type": "event"
    },
    {
      "anonymous": false,
      "inputs": [
        {
          "indexed": false,
          "internalType": "address",
          "name": "",
          "type": "address"
        },
        {
          "indexed": false,
          "internalType": "uint256",
          "name": "",
          "type": "uint256"
        }
      ],
      "name": "payedForCar",
      "type": "event"
    },
    {
      "anonymous": false,
      "inputs": [
        {
          "indexed": false,
          "internalType": "address",
          "name": "",
          "type": "address"
        },
        {
          "indexed": false,
          "internalType": "uint256",
          "name": "",
          "type": "uint256"
        }
      ],
      "name": "payedForZombie",
      "type": "event"
    },
    {
      "inputs": [],
      "name": "_mintCarWithBr",
      "outputs": [],
      "stateMutability": "payable",
      "type": "function"
    },
    {
      "inputs": [],
      "name": "_mintZombieWithBr",
      "outputs": [],
      "stateMutability": "payable",
      "type": "function"
    },
    {
      "inputs": [
        {
          "internalType": "address",
          "name": "to",
          "type": "address"
        },
        {
          "internalType": "uint256",
          "name": "tokenId",
          "type": "uint256"
        }
      ],
      "name": "approve",
      "outputs": [],
      "stateMutability": "nonpayable",
      "type": "function"
    },
    {
      "inputs": [
        {
          "internalType": "address",
          "name": "owner",
          "type": "address"
        }
      ],
      "name": "balanceOf",
      "outputs": [
        {
          "internalType": "uint256",
          "name": "",
          "type": "uint256"
        }
      ],
      "stateMutability": "view",
      "type": "function"
    },
    {
      "inputs": [],
      "name": "bnbPrice",
      "outputs": [
        {
          "internalType": "uint256",
          "name": "",
          "type": "uint256"
        }
      ],
      "stateMutability": "view",
      "type": "function"
    },
    {
      "inputs": [],
      "name": "brainsAddress",
      "outputs": [
        {
          "internalType": "address",
          "name": "",
          "type": "address"
        }
      ],
      "stateMutability": "view",
      "type": "function"
    },
    {
      "inputs": [],
      "name": "brainsPerDollar",
      "outputs": [
        {
          "internalType": "uint256",
          "name": "",
          "type": "uint256"
        }
      ],
      "stateMutability": "view",
      "type": "function"
    },
    {
      "inputs": [
        {
          "internalType": "uint256",
          "name": "_id",
          "type": "uint256"
        }
      ],
      "name": "buyCar",
      "outputs": [],
      "stateMutability": "payable",
      "type": "function"
    },
    {
      "inputs": [],
      "name": "carAddress",
      "outputs": [
        {
          "internalType": "address",
          "name": "",
          "type": "address"
        }
      ],
      "stateMutability": "view",
      "type": "function"
    },
    {
      "inputs": [],
      "name": "err_mint",
      "outputs": [],
      "stateMutability": "nonpayable",
      "type": "function"
    },
    {
      "inputs": [
        {
          "internalType": "uint256",
          "name": "tokenId",
          "type": "uint256"
        }
      ],
      "name": "getApproved",
      "outputs": [
        {
          "internalType": "address",
          "name": "",
          "type": "address"
        }
      ],
      "stateMutability": "view",
      "type": "function"
    },
    {
      "inputs": [],
      "name": "getPrice",
      "outputs": [],
      "stateMutability": "nonpayable",
      "type": "function"
    },
    {
      "inputs": [
        {
          "internalType": "uint256",
          "name": "_id",
          "type": "uint256"
        }
      ],
      "name": "getPriceC",
      "outputs": [
        {
          "internalType": "uint256",
          "name": "",
          "type": "uint256"
        }
      ],
      "stateMutability": "view",
      "type": "function"
    },
    {
      "inputs": [
        {
          "internalType": "address",
          "name": "",
          "type": "address"
        }
      ],
      "name": "howManyC",
      "outputs": [
        {
          "internalType": "uint256",
          "name": "",
          "type": "uint256"
        }
      ],
      "stateMutability": "view",
      "type": "function"
    },
    {
      "inputs": [
        {
          "internalType": "address",
          "name": "",
          "type": "address"
        }
      ],
      "name": "howManyZ",
      "outputs": [
        {
          "internalType": "uint256",
          "name": "",
          "type": "uint256"
        }
      ],
      "stateMutability": "view",
      "type": "function"
    },
    {
      "inputs": [
        {
          "internalType": "uint256",
          "name": "",
          "type": "uint256"
        }
      ],
      "name": "idOwnerC",
      "outputs": [
        {
          "internalType": "address",
          "name": "",
          "type": "address"
        }
      ],
      "stateMutability": "view",
      "type": "function"
    },
    {
      "inputs": [
        {
          "internalType": "uint256",
          "name": "",
          "type": "uint256"
        }
      ],
      "name": "idOwnerZ",
      "outputs": [
        {
          "internalType": "address",
          "name": "",
          "type": "address"
        }
      ],
      "stateMutability": "view",
      "type": "function"
    },
    {
      "inputs": [
        {
          "internalType": "address",
          "name": "owner",
          "type": "address"
        },
        {
          "internalType": "address",
          "name": "operator",
          "type": "address"
        }
      ],
      "name": "isApprovedForAll",
      "outputs": [
        {
          "internalType": "bool",
          "name": "",
          "type": "bool"
        }
      ],
      "stateMutability": "view",
      "type": "function"
    },
    {
      "inputs": [
        {
          "internalType": "address",
          "name": "_add",
          "type": "address"
        }
      ],
      "name": "killCounterC",
      "outputs": [],
      "stateMutability": "nonpayable",
      "type": "function"
    },
    {
      "inputs": [
        {
          "internalType": "address",
          "name": "_add",
          "type": "address"
        }
      ],
      "name": "killCounterZ",
      "outputs": [],
      "stateMutability": "nonpayable",
      "type": "function"
    },
    {
      "inputs": [],
      "name": "mintFree",
      "outputs": [],
      "stateMutability": "nonpayable",
      "type": "function"
    },
    {
      "inputs": [
        {
          "internalType": "address",
          "name": "",
          "type": "address"
        },
        {
          "internalType": "uint256",
          "name": "",
          "type": "uint256"
        }
      ],
      "name": "mintingQuequeC",
      "outputs": [
        {
          "internalType": "uint256",
          "name": "",
          "type": "uint256"
        }
      ],
      "stateMutability": "view",
      "type": "function"
    },
    {
      "inputs": [
        {
          "internalType": "address",
          "name": "",
          "type": "address"
        },
        {
          "internalType": "uint256",
          "name": "",
          "type": "uint256"
        }
      ],
      "name": "mintingQuequeZ",
      "outputs": [
        {
          "internalType": "uint256",
          "name": "",
          "type": "uint256"
        }
      ],
      "stateMutability": "view",
      "type": "function"
    },
    {
      "inputs": [],
      "name": "name",
      "outputs": [
        {
          "internalType": "string",
          "name": "",
          "type": "string"
        }
      ],
      "stateMutability": "view",
      "type": "function"
    },
    {
      "inputs": [
        {
          "internalType": "uint256",
          "name": "",
          "type": "uint256"
        }
      ],
      "name": "nftIdSaleC",
      "outputs": [
        {
          "internalType": "bool",
          "name": "",
          "type": "bool"
        }
      ],
      "stateMutability": "view",
      "type": "function"
    },
    {
      "inputs": [
        {
          "internalType": "uint256",
          "name": "",
          "type": "uint256"
        }
      ],
      "name": "nftIdSaleZ",
      "outputs": [
        {
          "internalType": "bool",
          "name": "",
          "type": "bool"
        }
      ],
      "stateMutability": "view",
      "type": "function"
    },
    {
      "inputs": [],
      "name": "owner",
      "outputs": [
        {
          "internalType": "address",
          "name": "",
          "type": "address"
        }
      ],
      "stateMutability": "view",
      "type": "function"
    },
    {
      "inputs": [
        {
          "internalType": "uint256",
          "name": "tokenId",
          "type": "uint256"
        }
      ],
      "name": "ownerOf",
      "outputs": [
        {
          "internalType": "address",
          "name": "",
          "type": "address"
        }
      ],
      "stateMutability": "view",
      "type": "function"
    },
    {
      "inputs": [
        {
          "internalType": "uint256",
          "name": "_id",
          "type": "uint256"
        }
      ],
      "name": "priceGetterC",
      "outputs": [
        {
          "internalType": "uint256",
          "name": "",
          "type": "uint256"
        }
      ],
      "stateMutability": "view",
      "type": "function"
    },
    {
      "inputs": [
        {
          "internalType": "uint256",
          "name": "_id",
          "type": "uint256"
        }
      ],
      "name": "priceGetterZ",
      "outputs": [
        {
          "internalType": "uint256",
          "name": "",
          "type": "uint256"
        }
      ],
      "stateMutability": "view",
      "type": "function"
    },
    {
      "inputs": [],
      "name": "priceOracleAddress",
      "outputs": [
        {
          "internalType": "address",
          "name": "",
          "type": "address"
        }
      ],
      "stateMutability": "view",
      "type": "function"
    },
    {
      "inputs": [
        {
          "internalType": "address",
          "name": "",
          "type": "address"
        }
      ],
      "name": "qCounterC",
      "outputs": [
        {
          "internalType": "uint256",
          "name": "",
          "type": "uint256"
        }
      ],
      "stateMutability": "view",
      "type": "function"
    },
    {
      "inputs": [
        {
          "internalType": "address",
          "name": "",
          "type": "address"
        }
      ],
      "name": "qCounterZ",
      "outputs": [
        {
          "internalType": "uint256",
          "name": "",
          "type": "uint256"
        }
      ],
      "stateMutability": "view",
      "type": "function"
    },
    {
      "inputs": [],
      "name": "renounceOwnership",
      "outputs": [],
      "stateMutability": "nonpayable",
      "type": "function"
    },
    {
      "inputs": [
        {
          "internalType": "address",
          "name": "from",
          "type": "address"
        },
        {
          "internalType": "address",
          "name": "to",
          "type": "address"
        },
        {
          "internalType": "uint256",
          "name": "tokenId",
          "type": "uint256"
        }
      ],
      "name": "safeTransferFrom",
      "outputs": [],
      "stateMutability": "nonpayable",
      "type": "function"
    },
    {
      "inputs": [
        {
          "internalType": "address",
          "name": "from",
          "type": "address"
        },
        {
          "internalType": "address",
          "name": "to",
          "type": "address"
        },
        {
          "internalType": "uint256",
          "name": "tokenId",
          "type": "uint256"
        },
        {
          "internalType": "bytes",
          "name": "data",
          "type": "bytes"
        }
      ],
      "name": "safeTransferFrom",
      "outputs": [],
      "stateMutability": "nonpayable",
      "type": "function"
    },
    {
      "inputs": [
        {
          "internalType": "uint256",
          "name": "_price",
          "type": "uint256"
        },
        {
          "internalType": "uint256",
          "name": "_id",
          "type": "uint256"
        }
      ],
      "name": "sellCar",
      "outputs": [],
      "stateMutability": "payable",
      "type": "function"
    },
    {
      "inputs": [
        {
          "internalType": "uint256",
          "name": "_price",
          "type": "uint256"
        },
        {
          "internalType": "uint256",
          "name": "_id",
          "type": "uint256"
        }
      ],
      "name": "sellZmb",
      "outputs": [],
      "stateMutability": "payable",
      "type": "function"
    },
    {
      "inputs": [
        {
          "internalType": "address",
          "name": "operator",
          "type": "address"
        },
        {
          "internalType": "bool",
          "name": "approved",
          "type": "bool"
        }
      ],
      "name": "setApprovalForAll",
      "outputs": [],
      "stateMutability": "nonpayable",
      "type": "function"
    },
    {
      "inputs": [
        {
          "internalType": "uint256",
          "name": "_bnb",
          "type": "uint256"
        }
      ],
      "name": "setBnb",
      "outputs": [],
      "stateMutability": "nonpayable",
      "type": "function"
    },
    {
      "inputs": [
        {
          "internalType": "address",
          "name": "_add",
          "type": "address"
        }
      ],
      "name": "setBrains",
      "outputs": [],
      "stateMutability": "nonpayable",
      "type": "function"
    },
    {
      "inputs": [
        {
          "internalType": "address",
          "name": "_add",
          "type": "address"
        }
      ],
      "name": "setCars",
      "outputs": [],
      "stateMutability": "nonpayable",
      "type": "function"
    },
    {
      "inputs": [
        {
          "internalType": "address",
          "name": "_add",
          "type": "address"
        }
      ],
      "name": "setKingOracle",
      "outputs": [],
      "stateMutability": "nonpayable",
      "type": "function"
    },
    {
      "inputs": [
        {
          "internalType": "address",
          "name": "_add",
          "type": "address"
        }
      ],
      "name": "setOracle",
      "outputs": [],
      "stateMutability": "nonpayable",
      "type": "function"
    },
    {
      "inputs": [
        {
          "internalType": "address",
          "name": "_add",
          "type": "address"
        }
      ],
      "name": "setZmb",
      "outputs": [],
      "stateMutability": "nonpayable",
      "type": "function"
    },
    {
      "inputs": [
        {
          "internalType": "bytes4",
          "name": "interfaceId",
          "type": "bytes4"
        }
      ],
      "name": "supportsInterface",
      "outputs": [
        {
          "internalType": "bool",
          "name": "",
          "type": "bool"
        }
      ],
      "stateMutability": "view",
      "type": "function"
    },
    {
      "inputs": [],
      "name": "symbol",
      "outputs": [
        {
          "internalType": "string",
          "name": "",
          "type": "string"
        }
      ],
      "stateMutability": "view",
      "type": "function"
    },
    {
      "inputs": [
        {
          "internalType": "uint256",
          "name": "tokenId",
          "type": "uint256"
        }
      ],
      "name": "tokenURI",
      "outputs": [
        {
          "internalType": "string",
          "name": "",
          "type": "string"
        }
      ],
      "stateMutability": "view",
      "type": "function"
    },
    {
      "inputs": [
        {
          "internalType": "address",
          "name": "from",
          "type": "address"
        },
        {
          "internalType": "address",
          "name": "to",
          "type": "address"
        },
        {
          "internalType": "uint256",
          "name": "tokenId",
          "type": "uint256"
        }
      ],
      "name": "transferFrom",
      "outputs": [],
      "stateMutability": "nonpayable",
      "type": "function"
    },
    {
      "inputs": [
        {
          "internalType": "address",
          "name": "newOwner",
          "type": "address"
        }
      ],
      "name": "transferOwnership",
      "outputs": [],
      "stateMutability": "nonpayable",
      "type": "function"
    },
    {
      "inputs": [],
      "name": "zmbAddress",
      "outputs": [
        {
          "internalType": "address",
          "name": "",
          "type": "address"
        }
      ],
      "stateMutability": "view",
      "type": "function"
    }
  ],
  "bytecode": "0x608060405266b1a2bc2ec50000601b556000601c5560006020553480156200002657600080fd5b5060405162005b7e38038062005b7e83398181016040528101906200004c9190620003cc565b81816200006e62000062620000b360201b60201c565b620000bb60201b60201c565b8160019080519060200190620000869291906200017f565b5080600290805190602001906200009f9291906200017f565b5050506101e86015819055505050620004b6565b600033905090565b60008060009054906101000a900473ffffffffffffffffffffffffffffffffffffffff169050816000806101000a81548173ffffffffffffffffffffffffffffffffffffffff021916908373ffffffffffffffffffffffffffffffffffffffff1602179055508173ffffffffffffffffffffffffffffffffffffffff168173ffffffffffffffffffffffffffffffffffffffff167f8be0079c531659141344cd1fd0a4f28419497f9722a3daafe3b4186f6b6457e060405160405180910390a35050565b8280546200018d9062000480565b90600052602060002090601f016020900481019282620001b15760008555620001fd565b82601f10620001cc57805160ff1916838001178555620001fd565b82800160010185558215620001fd579182015b82811115620001fc578251825591602001919060010190620001df565b5b5090506200020c919062000210565b5090565b5b808211156200022b57600081600090555060010162000211565b5090565b6000604051905090565b600080fd5b600080fd5b600080fd5b600080fd5b6000601f19601f8301169050919050565b7f4e487b7100000000000000000000000000000000000000000000000000000000600052604160045260246000fd5b62000298826200024d565b810181811067ffffffffffffffff82111715620002ba57620002b96200025e565b5b80604052505050565b6000620002cf6200022f565b9050620002dd82826200028d565b919050565b600067ffffffffffffffff8211156200030057620002ff6200025e565b5b6200030b826200024d565b9050602081019050919050565b60005b83811015620003385780820151818401526020810190506200031b565b8381111562000348576000848401525b50505050565b6000620003656200035f84620002e2565b620002c3565b90508281526020810184848401111562000384576200038362000248565b5b6200039184828562000318565b509392505050565b600082601f830112620003b157620003b062000243565b5b8151620003c38482602086016200034e565b91505092915050565b60008060408385031215620003e657620003e562000239565b5b600083015167ffffffffffffffff8111156200040757620004066200023e565b5b620004158582860162000399565b925050602083015167ffffffffffffffff8111156200043957620004386200023e565b5b620004478582860162000399565b9150509250929050565b7f4e487b7100000000000000000000000000000000000000000000000000000000600052602260045260246000fd5b600060028204905060018216806200049957607f821691505b60208210811415620004b057620004af62000451565b5b50919050565b6156b880620004c66000396000f3fe6080604052600436106102e35760003560e01c8063715018a611610190578063b0a9e317116100dc578063dc86370a11610095578063e09e06b61161006f578063e09e06b614610b14578063e985e9c514610b51578063f2fde38b14610b8e578063f462225214610bb7576102e3565b8063dc86370a14610a71578063dc8a53e714610aae578063dfe0631614610aeb576102e3565b8063b0a9e3171461094a578063b14130b014610966578063b88d4fde146109a3578063c87b56dd146109cc578063cdcf1a1814610a09578063d6a5b36714610a34576102e3565b80639490afbc116101495780639b2936b2116101235780639b2936b2146108b1578063a22cb465146108da578063a7b6ce6514610903578063ac9065f61461090d576102e3565b80639490afbc1461084657806395d89b411461086f57806398d5fdca1461089a576102e3565b8063715018a61461076b57806377b31082146107825780637adbf973146107bf5780638ab53447146107e85780638da5cb5b146107ff57806393563bc81461082a576102e3565b806323bee0c51161024f57806342842e0e116102085780636352211e116101e25780636352211e14610698578063667b170e146106d55780636c2310601461071257806370a082311461072e576102e3565b806342842e0e1461061b5780634f69408014610644578063576dde121461066d576102e3565b806323bee0c5146105095780632b1593bf146105325780632bc51c6d1461056f5780632ce008581461059a57806338e38585146105c5578063403998b1146105f0576102e3565b8063095ea7b3116102a1578063095ea7b3146103e95780630ada58c1146104125780630ae2bc541461044f578063181d46541461048c5780631c62c76e146104c957806323b872dd146104e0576102e3565b8062dfd52d146102e857806301ffc9a714610311578063052a31491461034e57806306fdde031461037757806307839e62146103a2578063081812fc146103ac575b600080fd5b3480156102f457600080fd5b5061030f600480360381019061030a9190613ef1565b610bf4565b005b34801561031d57600080fd5b5061033860048036038101906103339190613f76565b610cdc565b6040516103459190613fbe565b60405180910390f35b34801561035a57600080fd5b5061037560048036038101906103709190613ef1565b610dbe565b005b34801561038357600080fd5b5061038c610e4b565b6040516103999190614072565b60405180910390f35b6103aa610edd565b005b3480156103b857600080fd5b506103d360048036038101906103ce91906140ca565b611383565b6040516103e09190614106565b60405180910390f35b3480156103f557600080fd5b50610410600480360381019061040b9190614121565b6113c9565b005b34801561041e57600080fd5b5061043960048036038101906104349190614121565b6114e1565b6040516104469190614170565b60405180910390f35b34801561045b57600080fd5b5061047660048036038101906104719190613ef1565b611506565b6040516104839190614170565b60405180910390f35b34801561049857600080fd5b506104b360048036038101906104ae9190613ef1565b61151e565b6040516104c09190614170565b60405180910390f35b3480156104d557600080fd5b506104de611536565b005b3480156104ec57600080fd5b506105076004803603810190610502919061418b565b611710565b005b34801561051557600080fd5b50610530600480360381019061052b9190613ef1565b611770565b005b34801561053e57600080fd5b5061055960048036038101906105549190613ef1565b611858565b6040516105669190614170565b60405180910390f35b34801561057b57600080fd5b50610584611870565b6040516105919190614106565b60405180910390f35b3480156105a657600080fd5b506105af611896565b6040516105bc9190614106565b60405180910390f35b3480156105d157600080fd5b506105da6118bc565b6040516105e79190614106565b60405180910390f35b3480156105fc57600080fd5b506106056118e2565b6040516106129190614170565b60405180910390f35b34801561062757600080fd5b50610642600480360381019061063d919061418b565b6118e8565b005b34801561065057600080fd5b5061066b60048036038101906106669190613ef1565b611908565b005b34801561067957600080fd5b50610682611995565b60405161068f9190614170565b60405180910390f35b3480156106a457600080fd5b506106bf60048036038101906106ba91906140ca565b61199b565b6040516106cc9190614106565b60405180910390f35b3480156106e157600080fd5b506106fc60048036038101906106f791906140ca565b611a4d565b6040516107099190614106565b60405180910390f35b61072c600480360381019061072791906140ca565b611a80565b005b34801561073a57600080fd5b5061075560048036038101906107509190613ef1565b611c76565b6040516107629190614170565b60405180910390f35b34801561077757600080fd5b50610780611d2e565b005b34801561078e57600080fd5b506107a960048036038101906107a491906140ca565b611d42565b6040516107b69190614106565b60405180910390f35b3480156107cb57600080fd5b506107e660048036038101906107e19190613ef1565b611d75565b005b3480156107f457600080fd5b506107fd611e02565b005b34801561080b57600080fd5b50610814611f67565b6040516108219190614106565b60405180910390f35b610844600480360381019061083f91906141de565b611f90565b005b34801561085257600080fd5b5061086d60048036038101906108689190613ef1565b61230d565b005b34801561087b57600080fd5b50610884612359565b6040516108919190614072565b60405180910390f35b3480156108a657600080fd5b506108af6123eb565b005b3480156108bd57600080fd5b506108d860048036038101906108d391906140ca565b612493565b005b3480156108e657600080fd5b5061090160048036038101906108fc919061424a565b6124a5565b005b61090b6124bb565b005b34801561091957600080fd5b50610934600480360381019061092f91906140ca565b612961565b6040516109419190614170565b60405180910390f35b610964600480360381019061095f91906141de565b612990565b005b34801561097257600080fd5b5061098d600480360381019061098891906140ca565b612c3a565b60405161099a9190614170565b60405180910390f35b3480156109af57600080fd5b506109ca60048036038101906109c591906143bf565b612c69565b005b3480156109d857600080fd5b506109f360048036038101906109ee91906140ca565b612ccb565b604051610a009190614072565b60405180910390f35b348015610a1557600080fd5b50610a1e612d33565b604051610a2b9190614106565b60405180910390f35b348015610a4057600080fd5b50610a5b6004803603810190610a5691906140ca565b612d59565b604051610a689190614170565b60405180910390f35b348015610a7d57600080fd5b50610a986004803603810190610a939190614121565b612d88565b604051610aa59190614170565b60405180910390f35b348015610aba57600080fd5b50610ad56004803603810190610ad09190613ef1565b612dad565b604051610ae29190614170565b60405180910390f35b348015610af757600080fd5b50610b126004803603810190610b0d9190613ef1565b612dc5565b005b348015610b2057600080fd5b50610b3b6004803603810190610b3691906140ca565b612e11565b604051610b489190613fbe565b60405180910390f35b348015610b5d57600080fd5b50610b786004803603810190610b739190614442565b612e31565b604051610b859190613fbe565b60405180910390f35b348015610b9a57600080fd5b50610bb56004803603810190610bb09190613ef1565b612ec5565b005b348015610bc357600080fd5b50610bde6004803603810190610bd991906140ca565b612f49565b604051610beb9190613fbe565b60405180910390f35b600960009054906101000a900473ffffffffffffffffffffffffffffffffffffffff1673ffffffffffffffffffffffffffffffffffffffff163373ffffffffffffffffffffffffffffffffffffffff1614610c84576040517f08c379a0000000000000000000000000000000000000000000000000000000008152600401610c7b906144ce565b60405180910390fd5b601260008273ffffffffffffffffffffffffffffffffffffffff1673ffffffffffffffffffffffffffffffffffffffff1681526020019081526020016000206000815480929190610cd49061451d565b919050555050565b60007f80ac58cd000000000000000000000000000000000000000000000000000000007bffffffffffffffffffffffffffffffffffffffffffffffffffffffff1916827bffffffffffffffffffffffffffffffffffffffffffffffffffffffff19161480610da757507f5b5e139f000000000000000000000000000000000000000000000000000000007bffffffffffffffffffffffffffffffffffffffffffffffffffffffff1916827bffffffffffffffffffffffffffffffffffffffffffffffffffffffff1916145b80610db75750610db682612f69565b5b9050919050565b610dc6612fd3565b80600c60006101000a81548173ffffffffffffffffffffffffffffffffffffffff021916908373ffffffffffffffffffffffffffffffffffffffff16021790555080600d60006101000a81548173ffffffffffffffffffffffffffffffffffffffff021916908373ffffffffffffffffffffffffffffffffffffffff16021790555050565b606060018054610e5a90614576565b80601f0160208091040260200160405190810160405280929190818152602001828054610e8690614576565b8015610ed35780601f10610ea857610100808354040283529160200191610ed3565b820191906000526020600020905b815481529060010190602001808311610eb657829003601f168201915b5050505050905090565b610ee56123eb565b600060145411610f2a576040517f08c379a0000000000000000000000000000000000000000000000000000000008152600401610f219061461a565b60405180910390fd5b60006014546004610f3b919061463a565b90506000610f4882613051565b905080600760009054906101000a900473ffffffffffffffffffffffffffffffffffffffff1673ffffffffffffffffffffffffffffffffffffffff1663dd62ed3e33306040518363ffffffff1660e01b8152600401610fa8929190614694565b60206040518083038186803b158015610fc057600080fd5b505afa158015610fd4573d6000803e3d6000fd5b505050506040513d601f19601f82011682018060405250810190610ff891906146d2565b1015611039576040517f08c379a00000000000000000000000000000000000000000000000000000000081526004016110309061474b565b60405180910390fd5b6000600760009054906101000a900473ffffffffffffffffffffffffffffffffffffffff1673ffffffffffffffffffffffffffffffffffffffff166370a08231336040518263ffffffff1660e01b81526004016110969190614106565b60206040518083038186803b1580156110ae57600080fd5b505afa1580156110c2573d6000803e3d6000fd5b505050506040513d601f19601f820116820180604052508101906110e691906146d2565b90508181101561112b576040517f08c379a0000000000000000000000000000000000000000000000000000000008152600401611122906147b7565b60405180910390fd5b600760009054906101000a900473ffffffffffffffffffffffffffffffffffffffff1673ffffffffffffffffffffffffffffffffffffffff166323b872dd3330866040518463ffffffff1660e01b815260040161118a939291906147d7565b602060405180830381600087803b1580156111a457600080fd5b505af11580156111b8573d6000803e3d6000fd5b505050506040513d601f19601f820116820180604052508101906111dc9190614823565b61121b576040517f08c379a00000000000000000000000000000000000000000000000000000000081526004016112129061489c565b60405180910390fd5b6001601260003373ffffffffffffffffffffffffffffffffffffffff1673ffffffffffffffffffffffffffffffffffffffff168152602001908152602001600020600082825461126b91906148bc565b9250508190555042601360003373ffffffffffffffffffffffffffffffffffffffff1673ffffffffffffffffffffffffffffffffffffffff1681526020019081526020016000206000601260003373ffffffffffffffffffffffffffffffffffffffff1673ffffffffffffffffffffffffffffffffffffffff168152602001908152602001600020548152602001908152602001600020819055507ffd5d119769957298f73f819c242e313cd24955fd5ebc9c9525cc4a988f65418f33601260003373ffffffffffffffffffffffffffffffffffffffff1673ffffffffffffffffffffffffffffffffffffffff16815260200190815260200160002054604051611376929190614912565b60405180910390a1505050565b600061138e8261306e565b6005600083815260200190815260200160002060009054906101000a900473ffffffffffffffffffffffffffffffffffffffff169050919050565b60006113d48261199b565b90508073ffffffffffffffffffffffffffffffffffffffff168373ffffffffffffffffffffffffffffffffffffffff161415611445576040517f08c379a000000000000000000000000000000000000000000000000000000000815260040161143c906149ad565b60405180910390fd5b8073ffffffffffffffffffffffffffffffffffffffff166114646130b9565b73ffffffffffffffffffffffffffffffffffffffff16148061149357506114928161148d6130b9565b612e31565b5b6114d2576040517f08c379a00000000000000000000000000000000000000000000000000000000081526004016114c990614a3f565b60405180910390fd5b6114dc83836130c1565b505050565b6013602052816000526040600020602052806000526040600020600091509150505481565b60106020528060005260406000206000915090505481565b601e6020528060005260406000206000915090505481565b6000601060003373ffffffffffffffffffffffffffffffffffffffff1673ffffffffffffffffffffffffffffffffffffffff16815260200190815260200160002054116115b8576040517f08c379a00000000000000000000000000000000000000000000000000000000081526004016115af90614aab565b60405180910390fd5b611c20601160003373ffffffffffffffffffffffffffffffffffffffff1673ffffffffffffffffffffffffffffffffffffffff1681526020019081526020016000206000601060003373ffffffffffffffffffffffffffffffffffffffff1673ffffffffffffffffffffffffffffffffffffffff16815260200190815260200160002054815260200190815260200160002054426116569190614acb565b11611696576040517f08c379a000000000000000000000000000000000000000000000000000000000815260040161168d90614b4b565b60405180910390fd5b7f966a5f15179950e42497f584addd65104d4aa364cf3779d69f475b20d4bfb4e833601060003373ffffffffffffffffffffffffffffffffffffffff1673ffffffffffffffffffffffffffffffffffffffff16815260200190815260200160002054604051611706929190614912565b60405180910390a1565b61172161171b6130b9565b8261317a565b611760576040517f08c379a000000000000000000000000000000000000000000000000000000000815260040161175790614bdd565b60405180910390fd5b61176b83838361320f565b505050565b600960009054906101000a900473ffffffffffffffffffffffffffffffffffffffff1673ffffffffffffffffffffffffffffffffffffffff163373ffffffffffffffffffffffffffffffffffffffff1614611800576040517f08c379a00000000000000000000000000000000000000000000000000000000081526004016117f7906144ce565b60405180910390fd5b601060008273ffffffffffffffffffffffffffffffffffffffff1673ffffffffffffffffffffffffffffffffffffffff16815260200190815260200160002060008154809291906118509061451d565b919050555050565b60196020528060005260406000206000915090505481565b600f60009054906101000a900473ffffffffffffffffffffffffffffffffffffffff1681565b600860009054906101000a900473ffffffffffffffffffffffffffffffffffffffff1681565b600b60009054906101000a900473ffffffffffffffffffffffffffffffffffffffff1681565b60145481565b61190383838360405180602001604052806000815250612c69565b505050565b611910612fd3565b80600a60006101000a81548173ffffffffffffffffffffffffffffffffffffffff021916908373ffffffffffffffffffffffffffffffffffffffff16021790555080600b60006101000a81548173ffffffffffffffffffffffffffffffffffffffff021916908373ffffffffffffffffffffffffffffffffffffffff16021790555050565b60155481565b6000806003600084815260200190815260200160002060009054906101000a900473ffffffffffffffffffffffffffffffffffffffff169050600073ffffffffffffffffffffffffffffffffffffffff168173ffffffffffffffffffffffffffffffffffffffff161415611a44576040517f08c379a0000000000000000000000000000000000000000000000000000000008152600401611a3b90614c49565b60405180910390fd5b80915050919050565b60186020528060005260406000206000915054906101000a900473ffffffffffffffffffffffffffffffffffffffff1681565b6000611a8b82612961565b9050600066b1a2bc2ec5000090508082611aa591906148bc565b341015611ae7576040517f08c379a0000000000000000000000000000000000000000000000000000000008152600401611ade90614cb5565b60405180910390fd5b600c60009054906101000a900473ffffffffffffffffffffffffffffffffffffffff1673ffffffffffffffffffffffffffffffffffffffff16638c44c92560168581548110611b3957611b38614cd5565b5b906000526020600020906003020160020160009054906101000a900473ffffffffffffffffffffffffffffffffffffffff163360168781548110611b8057611b7f614cd5565b5b9060005260206000209060030201600101546040518463ffffffff1660e01b8152600401611bb0939291906147d7565b600060405180830381600087803b158015611bca57600080fd5b505af1158015611bde573d6000803e3d6000fd5b50505050600060168481548110611bf857611bf7614cd5565b5b906000526020600020906003020160020160146101000a81548160ff0219169083151502179055506000601a600060168681548110611c3a57611c39614cd5565b5b906000526020600020906003020160010154815260200190815260200160002060006101000a81548160ff021916908315150217905550505050565b60008073ffffffffffffffffffffffffffffffffffffffff168273ffffffffffffffffffffffffffffffffffffffff161415611ce7576040517f08c379a0000000000000000000000000000000000000000000000000000000008152600401611cde90614d76565b60405180910390fd5b600460008373ffffffffffffffffffffffffffffffffffffffff1673ffffffffffffffffffffffffffffffffffffffff168152602001908152602001600020549050919050565b611d36612fd3565b611d406000613476565b565b601d6020528060005260406000206000915054906101000a900473ffffffffffffffffffffffffffffffffffffffff1681565b611d7d612fd3565b80600e60006101000a81548173ffffffffffffffffffffffffffffffffffffffff021916908373ffffffffffffffffffffffffffffffffffffffff16021790555080600f60006101000a81548173ffffffffffffffffffffffffffffffffffffffff021916908373ffffffffffffffffffffffffffffffffffffffff16021790555050565b6001601060003373ffffffffffffffffffffffffffffffffffffffff1673ffffffffffffffffffffffffffffffffffffffff1681526020019081526020016000206000828254611e5291906148bc565b9250508190555042601160003373ffffffffffffffffffffffffffffffffffffffff1673ffffffffffffffffffffffffffffffffffffffff1681526020019081526020016000206000601060003373ffffffffffffffffffffffffffffffffffffffff1673ffffffffffffffffffffffffffffffffffffffff168152602001908152602001600020548152602001908152602001600020819055507f966a5f15179950e42497f584addd65104d4aa364cf3779d69f475b20d4bfb4e833601060003373ffffffffffffffffffffffffffffffffffffffff1673ffffffffffffffffffffffffffffffffffffffff16815260200190815260200160002054604051611f5d929190614912565b60405180910390a1565b60008060009054906101000a900473ffffffffffffffffffffffffffffffffffffffff16905090565b60001515601a600083815260200190815260200160002060009054906101000a900460ff16151514611ff7576040517f08c379a0000000000000000000000000000000000000000000000000000000008152600401611fee90614de2565b60405180910390fd5b600c60009054906101000a900473ffffffffffffffffffffffffffffffffffffffff1673ffffffffffffffffffffffffffffffffffffffff166374945b7382336040518363ffffffff1660e01b8152600401612054929190614e02565b60206040518083038186803b15801561206c57600080fd5b505afa158015612080573d6000803e3d6000fd5b505050506040513d601f19601f820116820180604052508101906120a49190614823565b6120e3576040517f08c379a00000000000000000000000000000000000000000000000000000000081526004016120da90614e9d565b60405180910390fd5b601b54341015612128576040517f08c379a000000000000000000000000000000000000000000000000000000000815260040161211f90614f09565b60405180910390fd5b600060405180608001604052808481526020018381526020013373ffffffffffffffffffffffffffffffffffffffff1681526020016001151581525090506016819080600181540180825580915050600190039060005260206000209060030201600090919091909150600082015181600001556020820151816001015560408201518160020160006101000a81548173ffffffffffffffffffffffffffffffffffffffff021916908373ffffffffffffffffffffffffffffffffffffffff16021790555060608201518160020160146101000a81548160ff021916908315150217905550505061221b33601c5461353a565b6001601a600084815260200190815260200160002060006101000a81548160ff0219169083151502179055503360186000601c54815260200190815260200160002060006101000a81548173ffffffffffffffffffffffffffffffffffffffff021916908373ffffffffffffffffffffffffffffffffffffffff160217905550601960003373ffffffffffffffffffffffffffffffffffffffff1673ffffffffffffffffffffffffffffffffffffffff16815260200190815260200160002060008154809291906122eb90614f29565b9190505550601c600081548092919061230390614f29565b9190505550505050565b612315612fd3565b80600960006101000a81548173ffffffffffffffffffffffffffffffffffffffff021916908373ffffffffffffffffffffffffffffffffffffffff16021790555050565b60606002805461236890614576565b80601f016020809104026020016040519081016040528092919081815260200182805461239490614576565b80156123e15780601f106123b6576101008083540402835291602001916123e1565b820191906000526020600020905b8154815290600101906020018083116123c457829003601f168201915b5050505050905090565b600e60009054906101000a900473ffffffffffffffffffffffffffffffffffffffff1673ffffffffffffffffffffffffffffffffffffffff1663a59dd4ce6040518163ffffffff1660e01b815260040160206040518083038186803b15801561245357600080fd5b505afa158015612467573d6000803e3d6000fd5b505050506040513d601f19601f8201168201806040525081019061248b91906146d2565b601481905550565b61249b612fd3565b8060158190555050565b6124b76124b06130b9565b8383613593565b5050565b6124c36123eb565b600060145411612508576040517f08c379a00000000000000000000000000000000000000000000000000000000081526004016124ff9061461a565b60405180910390fd5b60006014546004612519919061463a565b9050600061252682613051565b905080600760009054906101000a900473ffffffffffffffffffffffffffffffffffffffff1673ffffffffffffffffffffffffffffffffffffffff1663dd62ed3e33306040518363ffffffff1660e01b8152600401612586929190614694565b60206040518083038186803b15801561259e57600080fd5b505afa1580156125b2573d6000803e3d6000fd5b505050506040513d601f19601f820116820180604052508101906125d691906146d2565b1015612617576040517f08c379a000000000000000000000000000000000000000000000000000000000815260040161260e9061474b565b60405180910390fd5b6000600760009054906101000a900473ffffffffffffffffffffffffffffffffffffffff1673ffffffffffffffffffffffffffffffffffffffff166370a08231336040518263ffffffff1660e01b81526004016126749190614106565b60206040518083038186803b15801561268c57600080fd5b505afa1580156126a0573d6000803e3d6000fd5b505050506040513d601f19601f820116820180604052508101906126c491906146d2565b905081811015612709576040517f08c379a0000000000000000000000000000000000000000000000000000000008152600401612700906147b7565b60405180910390fd5b600760009054906101000a900473ffffffffffffffffffffffffffffffffffffffff1673ffffffffffffffffffffffffffffffffffffffff166323b872dd3330866040518463ffffffff1660e01b8152600401612768939291906147d7565b602060405180830381600087803b15801561278257600080fd5b505af1158015612796573d6000803e3d6000fd5b505050506040513d601f19601f820116820180604052508101906127ba9190614823565b6127f9576040517f08c379a00000000000000000000000000000000000000000000000000000000081526004016127f09061489c565b60405180910390fd5b6001601060003373ffffffffffffffffffffffffffffffffffffffff1673ffffffffffffffffffffffffffffffffffffffff168152602001908152602001600020600082825461284991906148bc565b9250508190555042601160003373ffffffffffffffffffffffffffffffffffffffff1673ffffffffffffffffffffffffffffffffffffffff1681526020019081526020016000206000601060003373ffffffffffffffffffffffffffffffffffffffff1673ffffffffffffffffffffffffffffffffffffffff168152602001908152602001600020548152602001908152602001600020819055507f966a5f15179950e42497f584addd65104d4aa364cf3779d69f475b20d4bfb4e833601060003373ffffffffffffffffffffffffffffffffffffffff1673ffffffffffffffffffffffffffffffffffffffff16815260200190815260200160002054604051612954929190614912565b60405180910390a1505050565b60006016828154811061297757612976614cd5565b5b9060005260206000209060030201600001549050919050565b60001515601f600083815260200190815260200160002060009054906101000a900460ff161515146129f7576040517f08c379a00000000000000000000000000000000000000000000000000000000081526004016129ee90614fbe565b60405180910390fd5b601b54341015612a3c576040517f08c379a0000000000000000000000000000000000000000000000000000000008152600401612a339061502a565b60405180910390fd5b6000670de0b6b3a764000083612a52919061463a565b9050600060405180608001604052808381526020018481526020013373ffffffffffffffffffffffffffffffffffffffff1681526020016001151581525090506017819080600181540180825580915050600190039060005260206000209060030201600090919091909150600082015181600001556020820151816001015560408201518160020160006101000a81548173ffffffffffffffffffffffffffffffffffffffff021916908373ffffffffffffffffffffffffffffffffffffffff16021790555060608201518160020160146101000a81548160ff0219169083151502179055505050612b473360205461353a565b6001601f600085815260200190815260200160002060006101000a81548160ff02191690831515021790555033601d6000602054815260200190815260200160002060006101000a81548173ffffffffffffffffffffffffffffffffffffffff021916908373ffffffffffffffffffffffffffffffffffffffff160217905550601e60003373ffffffffffffffffffffffffffffffffffffffff1673ffffffffffffffffffffffffffffffffffffffff1681526020019081526020016000206000815480929190612c1790614f29565b919050555060206000815480929190612c2f90614f29565b919050555050505050565b600060178281548110612c5057612c4f614cd5565b5b9060005260206000209060030201600001549050919050565b612c7a612c746130b9565b8361317a565b612cb9576040517f08c379a0000000000000000000000000000000000000000000000000000000008152600401612cb090614bdd565b60405180910390fd5b612cc584848484613700565b50505050565b6060612cd68261306e565b6000612ce061375c565b90506000815111612d005760405180602001604052806000815250612d2b565b80612d0a84613773565b604051602001612d1b929190615086565b6040516020818303038152906040525b915050919050565b600d60009054906101000a900473ffffffffffffffffffffffffffffffffffffffff1681565b600060168281548110612d6f57612d6e614cd5565b5b9060005260206000209060030201600001549050919050565b6011602052816000526040600020602052806000526040600020600091509150505481565b60126020528060005260406000206000915090505481565b612dcd612fd3565b80600760006101000a81548173ffffffffffffffffffffffffffffffffffffffff021916908373ffffffffffffffffffffffffffffffffffffffff16021790555050565b601a6020528060005260406000206000915054906101000a900460ff1681565b6000600660008473ffffffffffffffffffffffffffffffffffffffff1673ffffffffffffffffffffffffffffffffffffffff16815260200190815260200160002060008373ffffffffffffffffffffffffffffffffffffffff1673ffffffffffffffffffffffffffffffffffffffff16815260200190815260200160002060009054906101000a900460ff16905092915050565b612ecd612fd3565b600073ffffffffffffffffffffffffffffffffffffffff168173ffffffffffffffffffffffffffffffffffffffff161415612f3d576040517f08c379a0000000000000000000000000000000000000000000000000000000008152600401612f349061511c565b60405180910390fd5b612f4681613476565b50565b601f6020528060005260406000206000915054906101000a900460ff1681565b60007f01ffc9a7000000000000000000000000000000000000000000000000000000007bffffffffffffffffffffffffffffffffffffffffffffffffffffffff1916827bffffffffffffffffffffffffffffffffffffffffffffffffffffffff1916149050919050565b612fdb6130b9565b73ffffffffffffffffffffffffffffffffffffffff16612ff9611f67565b73ffffffffffffffffffffffffffffffffffffffff161461304f576040517f08c379a000000000000000000000000000000000000000000000000000000000815260040161304690615188565b60405180910390fd5b565b6000670de0b6b3a76400008261306791906151d7565b9050919050565b613077816138d4565b6130b6576040517f08c379a00000000000000000000000000000000000000000000000000000000081526004016130ad90614c49565b60405180910390fd5b50565b600033905090565b816005600083815260200190815260200160002060006101000a81548173ffffffffffffffffffffffffffffffffffffffff021916908373ffffffffffffffffffffffffffffffffffffffff160217905550808273ffffffffffffffffffffffffffffffffffffffff166131348361199b565b73ffffffffffffffffffffffffffffffffffffffff167f8c5be1e5ebec7d5bd14f71427d1e84f3dd0314c0f7b2291e5b200ac8c7c3b92560405160405180910390a45050565b6000806131868361199b565b90508073ffffffffffffffffffffffffffffffffffffffff168473ffffffffffffffffffffffffffffffffffffffff1614806131c857506131c78185612e31565b5b8061320657508373ffffffffffffffffffffffffffffffffffffffff166131ee84611383565b73ffffffffffffffffffffffffffffffffffffffff16145b91505092915050565b8273ffffffffffffffffffffffffffffffffffffffff1661322f8261199b565b73ffffffffffffffffffffffffffffffffffffffff1614613285576040517f08c379a000000000000000000000000000000000000000000000000000000000815260040161327c9061527a565b60405180910390fd5b600073ffffffffffffffffffffffffffffffffffffffff168273ffffffffffffffffffffffffffffffffffffffff1614156132f5576040517f08c379a00000000000000000000000000000000000000000000000000000000081526004016132ec9061530c565b60405180910390fd5b613300838383613940565b61330b6000826130c1565b6001600460008573ffffffffffffffffffffffffffffffffffffffff1673ffffffffffffffffffffffffffffffffffffffff168152602001908152602001600020600082825461335b9190614acb565b925050819055506001600460008473ffffffffffffffffffffffffffffffffffffffff1673ffffffffffffffffffffffffffffffffffffffff16815260200190815260200160002060008282546133b291906148bc565b92505081905550816003600083815260200190815260200160002060006101000a81548173ffffffffffffffffffffffffffffffffffffffff021916908373ffffffffffffffffffffffffffffffffffffffff160217905550808273ffffffffffffffffffffffffffffffffffffffff168473ffffffffffffffffffffffffffffffffffffffff167fddf252ad1be2c89b69c2b068fc378daa952ba7f163c4a11628f55a4df523b3ef60405160405180910390a4613471838383613945565b505050565b60008060009054906101000a900473ffffffffffffffffffffffffffffffffffffffff169050816000806101000a81548173ffffffffffffffffffffffffffffffffffffffff021916908373ffffffffffffffffffffffffffffffffffffffff1602179055508173ffffffffffffffffffffffffffffffffffffffff168173ffffffffffffffffffffffffffffffffffffffff167f8be0079c531659141344cd1fd0a4f28419497f9722a3daafe3b4186f6b6457e060405160405180910390a35050565b613544828261394a565b61355060008383613b24565b61358f576040517f08c379a000000000000000000000000000000000000000000000000000000000815260040161358690615378565b60405180910390fd5b5050565b8173ffffffffffffffffffffffffffffffffffffffff168373ffffffffffffffffffffffffffffffffffffffff161415613602576040517f08c379a00000000000000000000000000000000000000000000000000000000081526004016135f9906153e4565b60405180910390fd5b80600660008573ffffffffffffffffffffffffffffffffffffffff1673ffffffffffffffffffffffffffffffffffffffff16815260200190815260200160002060008473ffffffffffffffffffffffffffffffffffffffff1673ffffffffffffffffffffffffffffffffffffffff16815260200190815260200160002060006101000a81548160ff0219169083151502179055508173ffffffffffffffffffffffffffffffffffffffff168373ffffffffffffffffffffffffffffffffffffffff167f17307eab39ab6107e8899845ad3d59bd9653f200f220920489ca2b5937696c31836040516136f39190613fbe565b60405180910390a3505050565b61370b84848461320f565b61371784848484613ca2565b613756576040517f08c379a000000000000000000000000000000000000000000000000000000000815260040161374d90615476565b60405180910390fd5b50505050565b606060405180602001604052806000815250905090565b606060008214156137bb576040518060400160405280600181526020017f300000000000000000000000000000000000000000000000000000000000000081525090506138cf565b600082905060005b600082146137ed5780806137d690614f29565b915050600a826137e691906151d7565b91506137c3565b60008167ffffffffffffffff81111561380957613808614294565b5b6040519080825280601f01601f19166020018201604052801561383b5781602001600182028036833780820191505090505b5090505b600085146138c8576001826138549190614acb565b9150600a856138639190615496565b603061386f91906148bc565b60f81b81838151811061388557613884614cd5565b5b60200101907effffffffffffffffffffffffffffffffffffffffffffffffffffffffffffff1916908160001a905350600a856138c191906151d7565b945061383f565b8093505050505b919050565b60008073ffffffffffffffffffffffffffffffffffffffff166003600084815260200190815260200160002060009054906101000a900473ffffffffffffffffffffffffffffffffffffffff1673ffffffffffffffffffffffffffffffffffffffff1614159050919050565b505050565b505050565b600073ffffffffffffffffffffffffffffffffffffffff168273ffffffffffffffffffffffffffffffffffffffff1614156139ba576040517f08c379a00000000000000000000000000000000000000000000000000000000081526004016139b190615513565b60405180910390fd5b6139c3816138d4565b15613a03576040517f08c379a00000000000000000000000000000000000000000000000000000000081526004016139fa9061557f565b60405180910390fd5b613a0f60008383613940565b6001600460008473ffffffffffffffffffffffffffffffffffffffff1673ffffffffffffffffffffffffffffffffffffffff1681526020019081526020016000206000828254613a5f91906148bc565b92505081905550816003600083815260200190815260200160002060006101000a81548173ffffffffffffffffffffffffffffffffffffffff021916908373ffffffffffffffffffffffffffffffffffffffff160217905550808273ffffffffffffffffffffffffffffffffffffffff16600073ffffffffffffffffffffffffffffffffffffffff167fddf252ad1be2c89b69c2b068fc378daa952ba7f163c4a11628f55a4df523b3ef60405160405180910390a4613b2060008383613945565b5050565b6000613b2f83613e39565b15613c96578273ffffffffffffffffffffffffffffffffffffffff1663eeafbddc613b586130b9565b86856040518463ffffffff1660e01b8152600401613b78939291906147d7565b602060405180830381600087803b158015613b9257600080fd5b505af1925050508015613bc357506040513d601f19601f82011682018060405250810190613bc091906155b4565b60015b613c46573d8060008114613bf3576040519150601f19603f3d011682016040523d82523d6000602084013e613bf8565b606091505b50600081511415613c3e576040517f08c379a0000000000000000000000000000000000000000000000000000000008152600401613c3590615476565b60405180910390fd5b805181602001fd5b63150b7a0260e01b7bffffffffffffffffffffffffffffffffffffffffffffffffffffffff1916817bffffffffffffffffffffffffffffffffffffffffffffffffffffffff191614915050613c9b565b600190505b9392505050565b6000613cc38473ffffffffffffffffffffffffffffffffffffffff16613e5c565b15613e2c578373ffffffffffffffffffffffffffffffffffffffff1663150b7a02613cec6130b9565b8786866040518563ffffffff1660e01b8152600401613d0e9493929190615636565b602060405180830381600087803b158015613d2857600080fd5b505af1925050508015613d5957506040513d601f19601f82011682018060405250810190613d5691906155b4565b60015b613ddc573d8060008114613d89576040519150601f19603f3d011682016040523d82523d6000602084013e613d8e565b606091505b50600081511415613dd4576040517f08c379a0000000000000000000000000000000000000000000000000000000008152600401613dcb90615476565b60405180910390fd5b805181602001fd5b63150b7a0260e01b7bffffffffffffffffffffffffffffffffffffffffffffffffffffffff1916817bffffffffffffffffffffffffffffffffffffffffffffffffffffffff191614915050613e31565b600190505b949350505050565b6000808273ffffffffffffffffffffffffffffffffffffffff163b119050919050565b6000808273ffffffffffffffffffffffffffffffffffffffff163b119050919050565b6000604051905090565b600080fd5b600080fd5b600073ffffffffffffffffffffffffffffffffffffffff82169050919050565b6000613ebe82613e93565b9050919050565b613ece81613eb3565b8114613ed957600080fd5b50565b600081359050613eeb81613ec5565b92915050565b600060208284031215613f0757613f06613e89565b5b6000613f1584828501613edc565b91505092915050565b60007fffffffff0000000000000000000000000000000000000000000000000000000082169050919050565b613f5381613f1e565b8114613f5e57600080fd5b50565b600081359050613f7081613f4a565b92915050565b600060208284031215613f8c57613f8b613e89565b5b6000613f9a84828501613f61565b91505092915050565b60008115159050919050565b613fb881613fa3565b82525050565b6000602082019050613fd36000830184613faf565b92915050565b600081519050919050565b600082825260208201905092915050565b60005b83811015614013578082015181840152602081019050613ff8565b83811115614022576000848401525b50505050565b6000601f19601f8301169050919050565b600061404482613fd9565b61404e8185613fe4565b935061405e818560208601613ff5565b61406781614028565b840191505092915050565b6000602082019050818103600083015261408c8184614039565b905092915050565b6000819050919050565b6140a781614094565b81146140b257600080fd5b50565b6000813590506140c48161409e565b92915050565b6000602082840312156140e0576140df613e89565b5b60006140ee848285016140b5565b91505092915050565b61410081613eb3565b82525050565b600060208201905061411b60008301846140f7565b92915050565b6000806040838503121561413857614137613e89565b5b600061414685828601613edc565b9250506020614157858286016140b5565b9150509250929050565b61416a81614094565b82525050565b60006020820190506141856000830184614161565b92915050565b6000806000606084860312156141a4576141a3613e89565b5b60006141b286828701613edc565b93505060206141c386828701613edc565b92505060406141d4868287016140b5565b9150509250925092565b600080604083850312156141f5576141f4613e89565b5b6000614203858286016140b5565b9250506020614214858286016140b5565b9150509250929050565b61422781613fa3565b811461423257600080fd5b50565b6000813590506142448161421e565b92915050565b6000806040838503121561426157614260613e89565b5b600061426f85828601613edc565b925050602061428085828601614235565b9150509250929050565b600080fd5b600080fd5b7f4e487b7100000000000000000000000000000000000000000000000000000000600052604160045260246000fd5b6142cc82614028565b810181811067ffffffffffffffff821117156142eb576142ea614294565b5b80604052505050565b60006142fe613e7f565b905061430a82826142c3565b919050565b600067ffffffffffffffff82111561432a57614329614294565b5b61433382614028565b9050602081019050919050565b82818337600083830152505050565b600061436261435d8461430f565b6142f4565b90508281526020810184848401111561437e5761437d61428f565b5b614389848285614340565b509392505050565b600082601f8301126143a6576143a561428a565b5b81356143b684826020860161434f565b91505092915050565b600080600080608085870312156143d9576143d8613e89565b5b60006143e787828801613edc565b94505060206143f887828801613edc565b9350506040614409878288016140b5565b925050606085013567ffffffffffffffff81111561442a57614429613e8e565b5b61443687828801614391565b91505092959194509250565b6000806040838503121561445957614458613e89565b5b600061446785828601613edc565b925050602061447885828601613edc565b9150509250929050565b7f596f7520617265206e6f7420696e73696465206120636c6f75642e0000000000600082015250565b60006144b8601b83613fe4565b91506144c382614482565b602082019050919050565b600060208201905081810360008301526144e7816144ab565b9050919050565b7f4e487b7100000000000000000000000000000000000000000000000000000000600052601160045260246000fd5b600061452882614094565b9150600082141561453c5761453b6144ee565b5b600182039050919050565b7f4e487b7100000000000000000000000000000000000000000000000000000000600052602260045260246000fd5b6000600282049050600182168061458e57607f821691505b602082108114156145a2576145a1614547565b5b50919050565b7f506f737369626c6520756e646572666c6f772f6f766572666c6f77206973737560008201527f65206f6e20756e694f7261636c652e0000000000000000000000000000000000602082015250565b6000614604602f83613fe4565b915061460f826145a8565b604082019050919050565b60006020820190508181036000830152614633816145f7565b9050919050565b600061464582614094565b915061465083614094565b9250817fffffffffffffffffffffffffffffffffffffffffffffffffffffffffffffffff0483118215151615614689576146886144ee565b5b828202905092915050565b60006040820190506146a960008301856140f7565b6146b660208301846140f7565b9392505050565b6000815190506146cc8161409e565b92915050565b6000602082840312156146e8576146e7613e89565b5b60006146f6848285016146bd565b91505092915050565b7f746f206c6974746c6520616c6c6f77616e63652e000000000000000000000000600082015250565b6000614735601483613fe4565b9150614740826146ff565b602082019050919050565b6000602082019050818103600083015261476481614728565b9050919050565b7f546f206c6974746c652062616c616e6365206f6620627269616e732e00000000600082015250565b60006147a1601c83613fe4565b91506147ac8261476b565b602082019050919050565b600060208201905081810360008301526147d081614794565b9050919050565b60006060820190506147ec60008301866140f7565b6147f960208301856140f7565b6148066040830184614161565b949350505050565b60008151905061481d8161421e565b92915050565b60006020828403121561483957614838613e89565b5b60006148478482850161480e565b91505092915050565b7f5472616e73666572206661696c65640000000000000000000000000000000000600082015250565b6000614886600f83613fe4565b915061489182614850565b602082019050919050565b600060208201905081810360008301526148b581614879565b9050919050565b60006148c782614094565b91506148d283614094565b9250827fffffffffffffffffffffffffffffffffffffffffffffffffffffffffffffffff03821115614907576149066144ee565b5b828201905092915050565b600060408201905061492760008301856140f7565b6149346020830184614161565b9392505050565b7f4552433732313a20617070726f76616c20746f2063757272656e74206f776e6560008201527f7200000000000000000000000000000000000000000000000000000000000000602082015250565b6000614997602183613fe4565b91506149a28261493b565b604082019050919050565b600060208201905081810360008301526149c68161498a565b9050919050565b7f4552433732313a20617070726f76652063616c6c6572206973206e6f7420746f60008201527f6b656e206f776e6572206e6f7220617070726f76656420666f7220616c6c0000602082015250565b6000614a29603e83613fe4565b9150614a34826149cd565b604082019050919050565b60006020820190508181036000830152614a5881614a1c565b9050919050565b7f596f7520646f6e74206861766520616e79206e66747320696e2071756575652e600082015250565b6000614a95602083613fe4565b9150614aa082614a5f565b602082019050919050565b60006020820190508181036000830152614ac481614a88565b9050919050565b6000614ad682614094565b9150614ae183614094565b925082821015614af457614af36144ee565b5b828203905092915050565b7f596f75206e65656420746f2077616974207374696c6c00000000000000000000600082015250565b6000614b35601683613fe4565b9150614b4082614aff565b602082019050919050565b60006020820190508181036000830152614b6481614b28565b9050919050565b7f4552433732313a2063616c6c6572206973206e6f7420746f6b656e206f776e6560008201527f72206e6f7220617070726f766564000000000000000000000000000000000000602082015250565b6000614bc7602e83613fe4565b9150614bd282614b6b565b604082019050919050565b60006020820190508181036000830152614bf681614bba565b9050919050565b7f4552433732313a20696e76616c696420746f6b656e2049440000000000000000600082015250565b6000614c33601883613fe4565b9150614c3e82614bfd565b602082019050919050565b60006020820190508181036000830152614c6281614c26565b9050919050565b7f4e6f7420656e6f7567682070617965642e000000000000000000000000000000600082015250565b6000614c9f601183613fe4565b9150614caa82614c69565b602082019050919050565b60006020820190508181036000830152614cce81614c92565b9050919050565b7f4e487b7100000000000000000000000000000000000000000000000000000000600052603260045260246000fd5b7f4552433732313a2061646472657373207a65726f206973206e6f74206120766160008201527f6c6964206f776e65720000000000000000000000000000000000000000000000602082015250565b6000614d60602983613fe4565b9150614d6b82614d04565b604082019050919050565b60006020820190508181036000830152614d8f81614d53565b9050919050565b7f616c7265616479206f6e20736c61650000000000000000000000000000000000600082015250565b6000614dcc600f83613fe4565b9150614dd782614d96565b602082019050919050565b60006020820190508181036000830152614dfb81614dbf565b9050919050565b6000604082019050614e176000830185614161565b614e2460208301846140f7565b9392505050565b7f596f7520417265206e6f7420746865206f776e6572206f66207468697320696460008201527f2e00000000000000000000000000000000000000000000000000000000000000602082015250565b6000614e87602183613fe4565b9150614e9282614e2b565b604082019050919050565b60006020820190508181036000830152614eb681614e7a565b9050919050565b7f4e6f7420656e6f75676820626e622e0000000000000000000000000000000000600082015250565b6000614ef3600f83613fe4565b9150614efe82614ebd565b602082019050919050565b60006020820190508181036000830152614f2281614ee6565b9050919050565b6000614f3482614094565b91507fffffffffffffffffffffffffffffffffffffffffffffffffffffffffffffffff821415614f6757614f666144ee565b5b600182019050919050565b7f616c7265616479206f6e2073616c652e00000000000000000000000000000000600082015250565b6000614fa8601083613fe4565b9150614fb382614f72565b602082019050919050565b60006020820190508181036000830152614fd781614f9b565b9050919050565b7f4e6f7420656e6f75676874206574686572000000000000000000000000000000600082015250565b6000615014601183613fe4565b915061501f82614fde565b602082019050919050565b6000602082019050818103600083015261504381615007565b9050919050565b600081905092915050565b600061506082613fd9565b61506a818561504a565b935061507a818560208601613ff5565b80840191505092915050565b60006150928285615055565b915061509e8284615055565b91508190509392505050565b7f4f776e61626c653a206e6577206f776e657220697320746865207a65726f206160008201527f6464726573730000000000000000000000000000000000000000000000000000602082015250565b6000615106602683613fe4565b9150615111826150aa565b604082019050919050565b60006020820190508181036000830152615135816150f9565b9050919050565b7f4f776e61626c653a2063616c6c6572206973206e6f7420746865206f776e6572600082015250565b6000615172602083613fe4565b915061517d8261513c565b602082019050919050565b600060208201905081810360008301526151a181615165565b9050919050565b7f4e487b7100000000000000000000000000000000000000000000000000000000600052601260045260246000fd5b60006151e282614094565b91506151ed83614094565b9250826151fd576151fc6151a8565b5b828204905092915050565b7f4552433732313a207472616e736665722066726f6d20696e636f72726563742060008201527f6f776e6572000000000000000000000000000000000000000000000000000000602082015250565b6000615264602583613fe4565b915061526f82615208565b604082019050919050565b6000602082019050818103600083015261529381615257565b9050919050565b7f4552433732313a207472616e7366657220746f20746865207a65726f2061646460008201527f7265737300000000000000000000000000000000000000000000000000000000602082015250565b60006152f6602483613fe4565b91506153018261529a565b604082019050919050565b60006020820190508181036000830152615325816152e9565b9050919050565b7f6e6f7420746f6461790000000000000000000000000000000000000000000000600082015250565b6000615362600983613fe4565b915061536d8261532c565b602082019050919050565b6000602082019050818103600083015261539181615355565b9050919050565b7f4552433732313a20617070726f766520746f2063616c6c657200000000000000600082015250565b60006153ce601983613fe4565b91506153d982615398565b602082019050919050565b600060208201905081810360008301526153fd816153c1565b9050919050565b7f4552433732313a207472616e7366657220746f206e6f6e20455243373231526560008201527f63656976657220696d706c656d656e7465720000000000000000000000000000602082015250565b6000615460603283613fe4565b915061546b82615404565b604082019050919050565b6000602082019050818103600083015261548f81615453565b9050919050565b60006154a182614094565b91506154ac83614094565b9250826154bc576154bb6151a8565b5b828206905092915050565b7f4552433732313a206d696e7420746f20746865207a65726f2061646472657373600082015250565b60006154fd602083613fe4565b9150615508826154c7565b602082019050919050565b6000602082019050818103600083015261552c816154f0565b9050919050565b7f4552433732313a20746f6b656e20616c7265616479206d696e74656400000000600082015250565b6000615569601c83613fe4565b915061557482615533565b602082019050919050565b600060208201905081810360008301526155988161555c565b9050919050565b6000815190506155ae81613f4a565b92915050565b6000602082840312156155ca576155c9613e89565b5b60006155d88482850161559f565b91505092915050565b600081519050919050565b600082825260208201905092915050565b6000615608826155e1565b61561281856155ec565b9350615622818560208601613ff5565b61562b81614028565b840191505092915050565b600060808201905061564b60008301876140f7565b61565860208301866140f7565b6156656040830185614161565b818103606083015261567781846155fd565b90509594505050505056fea26469706673582212207f192d774c044294da9c2d91eba15c152b91393f79c19fa2fc80a89769ab095a64736f6c63430008090033",
  "linkReferences": {},
  "deployedLinkReferences": {}
}