{
  "_format": "hh-sol-artifact-1",
  "contractName": "ZombieMint",
  "sourceName": "contracts/z.sol",
  "abi": [
    {
      "inputs": [
        {
          "internalType": "string",
          "name": "_name",
          "type": "string"
        },
        {
          "internalType": "string",
          "name": "_symbol",
          "type": "string"
        }
      ],
      "stateMutability": "nonpayable",
      "type": "constructor"
    },
    {
      "anonymous": false,
      "inputs": [
        {
          "indexed": true,
          "internalType": "address",
          "name": "owner",
          "type": "address"
        },
        {
          "indexed": true,
          "internalType": "address",
          "name": "approved",
          "type": "address"
        },
        {
          "indexed": true,
          "internalType": "uint256",
          "name": "tokenId",
          "type": "uint256"
        }
      ],
      "name": "Approval",
      "type": "event"
    },
    {
      "anonymous": false,
      "inputs": [
        {
          "indexed": true,
          "internalType": "address",
          "name": "owner",
          "type": "address"
        },
        {
          "indexed": true,
          "internalType": "address",
          "name": "operator",
          "type": "address"
        },
        {
          "indexed": false,
          "internalType": "bool",
          "name": "approved",
          "type": "bool"
        }
      ],
      "name": "ApprovalForAll",
      "type": "event"
    },
    {
      "anonymous": false,
      "inputs": [
        {
          "indexed": true,
          "internalType": "address",
          "name": "previousOwner",
          "type": "address"
        },
        {
          "indexed": true,
          "internalType": "address",
          "name": "newOwner",
          "type": "address"
        }
      ],
      "name": "OwnershipTransferred",
      "type": "event"
    },
    {
      "anonymous": false,
      "inputs": [
        {
          "indexed": true,
          "internalType": "address",
          "name": "from",
          "type": "address"
        },
        {
          "indexed": true,
          "internalType": "address",
          "name": "to",
          "type": "address"
        },
        {
          "indexed": true,
          "internalType": "uint256",
          "name": "tokenId",
          "type": "uint256"
        }
      ],
      "name": "Transfer",
      "type": "event"
    },
    {
      "anonymous": false,
      "inputs": [
        {
          "indexed": false,
          "internalType": "uint256",
          "name": "id",
          "type": "uint256"
        },
        {
          "indexed": false,
          "internalType": "uint256",
          "name": "randNum",
          "type": "uint256"
        }
      ],
      "name": "minted",
      "type": "event"
    },
    {
      "anonymous": false,
      "inputs": [
        {
          "indexed": false,
          "internalType": "address",
          "name": "user",
          "type": "address"
        },
        {
          "indexed": false,
          "internalType": "uint256",
          "name": "time",
          "type": "uint256"
        }
      ],
      "name": "payedFee",
      "type": "event"
    },
    {
      "inputs": [],
      "name": "Oracle",
      "outputs": [
        {
          "internalType": "address",
          "name": "",
          "type": "address"
        }
      ],
      "stateMutability": "view",
      "type": "function"
    },
    {
      "inputs": [
        {
          "internalType": "address",
          "name": "_add",
          "type": "address"
        },
        {
          "internalType": "uint256",
          "name": "_rand",
          "type": "uint256"
        }
      ],
      "name": "_minting",
      "outputs": [],
      "stateMutability": "nonpayable",
      "type": "function"
    },
    {
      "inputs": [
        {
          "internalType": "address",
          "name": "to",
          "type": "address"
        },
        {
          "internalType": "uint256",
          "name": "tokenId",
          "type": "uint256"
        }
      ],
      "name": "approve",
      "outputs": [],
      "stateMutability": "nonpayable",
      "type": "function"
    },
    {
      "inputs": [
        {
          "internalType": "address",
          "name": "owner",
          "type": "address"
        }
      ],
      "name": "balanceOf",
      "outputs": [
        {
          "internalType": "uint256",
          "name": "",
          "type": "uint256"
        }
      ],
      "stateMutability": "view",
      "type": "function"
    },
    {
      "inputs": [],
      "name": "brainPrice",
      "outputs": [
        {
          "internalType": "uint256",
          "name": "",
          "type": "uint256"
        }
      ],
      "stateMutability": "view",
      "type": "function"
    },
    {
      "inputs": [],
      "name": "brainTest",
      "outputs": [
        {
          "internalType": "uint256",
          "name": "",
          "type": "uint256"
        }
      ],
      "stateMutability": "view",
      "type": "function"
    },
    {
      "inputs": [
        {
          "internalType": "uint256",
          "name": "_id",
          "type": "uint256"
        }
      ],
      "name": "checkIfInCrew",
      "outputs": [
        {
          "internalType": "bool",
          "name": "",
          "type": "bool"
        }
      ],
      "stateMutability": "view",
      "type": "function"
    },
    {
      "inputs": [
        {
          "internalType": "address",
          "name": "_add",
          "type": "address"
        }
      ],
      "name": "getAmount",
      "outputs": [
        {
          "internalType": "uint256",
          "name": "",
          "type": "uint256"
        }
      ],
      "stateMutability": "view",
      "type": "function"
    },
    {
      "inputs": [
        {
          "internalType": "uint256",
          "name": "tokenId",
          "type": "uint256"
        }
      ],
      "name": "getApproved",
      "outputs": [
        {
          "internalType": "address",
          "name": "",
          "type": "address"
        }
      ],
      "stateMutability": "view",
      "type": "function"
    },
    {
      "inputs": [],
      "name": "getIds",
      "outputs": [
        {
          "internalType": "uint256[]",
          "name": "",
          "type": "uint256[]"
        }
      ],
      "stateMutability": "view",
      "type": "function"
    },
    {
      "inputs": [
        {
          "internalType": "address",
          "name": "_add",
          "type": "address"
        }
      ],
      "name": "getIdsWithAddress",
      "outputs": [
        {
          "internalType": "uint256[]",
          "name": "",
          "type": "uint256[]"
        }
      ],
      "stateMutability": "view",
      "type": "function"
    },
    {
      "inputs": [
        {
          "internalType": "uint256",
          "name": "_id",
          "type": "uint256"
        }
      ],
      "name": "getIfInSquad",
      "outputs": [
        {
          "internalType": "bool",
          "name": "",
          "type": "bool"
        }
      ],
      "stateMutability": "view",
      "type": "function"
    },
    {
      "inputs": [],
      "name": "getMintStatus",
      "outputs": [
        {
          "internalType": "uint256",
          "name": "",
          "type": "uint256"
        }
      ],
      "stateMutability": "view",
      "type": "function"
    },
    {
      "inputs": [],
      "name": "getRar",
      "outputs": [
        {
          "internalType": "uint256[]",
          "name": "",
          "type": "uint256[]"
        }
      ],
      "stateMutability": "view",
      "type": "function"
    },
    {
      "inputs": [
        {
          "internalType": "uint256",
          "name": "_id",
          "type": "uint256"
        }
      ],
      "name": "getStr",
      "outputs": [
        {
          "internalType": "uint256",
          "name": "",
          "type": "uint256"
        }
      ],
      "stateMutability": "view",
      "type": "function"
    },
    {
      "inputs": [],
      "name": "getStrength",
      "outputs": [
        {
          "internalType": "uint256[]",
          "name": "",
          "type": "uint256[]"
        }
      ],
      "stateMutability": "view",
      "type": "function"
    },
    {
      "inputs": [
        {
          "internalType": "uint256",
          "name": "_id",
          "type": "uint256"
        }
      ],
      "name": "getStuffA",
      "outputs": [
        {
          "internalType": "uint256[]",
          "name": "",
          "type": "uint256[]"
        }
      ],
      "stateMutability": "view",
      "type": "function"
    },
    {
      "inputs": [],
      "name": "getVendor",
      "outputs": [
        {
          "internalType": "address",
          "name": "",
          "type": "address"
        }
      ],
      "stateMutability": "view",
      "type": "function"
    },
    {
      "inputs": [
        {
          "internalType": "address",
          "name": "",
          "type": "address"
        }
      ],
      "name": "howMany",
      "outputs": [
        {
          "internalType": "uint256",
          "name": "",
          "type": "uint256"
        }
      ],
      "stateMutability": "view",
      "type": "function"
    },
    {
      "inputs": [
        {
          "internalType": "uint256",
          "name": "",
          "type": "uint256"
        }
      ],
      "name": "idOwner",
      "outputs": [
        {
          "internalType": "address",
          "name": "",
          "type": "address"
        }
      ],
      "stateMutability": "view",
      "type": "function"
    },
    {
      "inputs": [
        {
          "internalType": "address",
          "name": "owner",
          "type": "address"
        },
        {
          "internalType": "address",
          "name": "operator",
          "type": "address"
        }
      ],
      "name": "isApprovedForAll",
      "outputs": [
        {
          "internalType": "bool",
          "name": "",
          "type": "bool"
        }
      ],
      "stateMutability": "view",
      "type": "function"
    },
    {
      "inputs": [],
      "name": "mintFree",
      "outputs": [],
      "stateMutability": "nonpayable",
      "type": "function"
    },
    {
      "inputs": [
        {
          "internalType": "address",
          "name": "",
          "type": "address"
        }
      ],
      "name": "mintStatus",
      "outputs": [
        {
          "internalType": "uint256",
          "name": "",
          "type": "uint256"
        }
      ],
      "stateMutability": "view",
      "type": "function"
    },
    {
      "inputs": [],
      "name": "name",
      "outputs": [
        {
          "internalType": "string",
          "name": "",
          "type": "string"
        }
      ],
      "stateMutability": "view",
      "type": "function"
    },
    {
      "inputs": [],
      "name": "owner",
      "outputs": [
        {
          "internalType": "address",
          "name": "",
          "type": "address"
        }
      ],
      "stateMutability": "view",
      "type": "function"
    },
    {
      "inputs": [
        {
          "internalType": "uint256",
          "name": "tokenId",
          "type": "uint256"
        }
      ],
      "name": "ownerOf",
      "outputs": [
        {
          "internalType": "address",
          "name": "",
          "type": "address"
        }
      ],
      "stateMutability": "view",
      "type": "function"
    },
    {
      "inputs": [],
      "name": "payForNft",
      "outputs": [],
      "stateMutability": "payable",
      "type": "function"
    },
    {
      "inputs": [],
      "name": "payWithBr",
      "outputs": [],
      "stateMutability": "payable",
      "type": "function"
    },
    {
      "inputs": [],
      "name": "renounceOwnership",
      "outputs": [],
      "stateMutability": "nonpayable",
      "type": "function"
    },
    {
      "inputs": [
        {
          "internalType": "address",
          "name": "from",
          "type": "address"
        },
        {
          "internalType": "address",
          "name": "to",
          "type": "address"
        },
        {
          "internalType": "uint256",
          "name": "tokenId",
          "type": "uint256"
        }
      ],
      "name": "safeTransferFrom",
      "outputs": [],
      "stateMutability": "nonpayable",
      "type": "function"
    },
    {
      "inputs": [
        {
          "internalType": "address",
          "name": "from",
          "type": "address"
        },
        {
          "internalType": "address",
          "name": "to",
          "type": "address"
        },
        {
          "internalType": "uint256",
          "name": "tokenId",
          "type": "uint256"
        },
        {
          "internalType": "bytes",
          "name": "data",
          "type": "bytes"
        }
      ],
      "name": "safeTransferFrom",
      "outputs": [],
      "stateMutability": "nonpayable",
      "type": "function"
    },
    {
      "inputs": [
        {
          "internalType": "address",
          "name": "operator",
          "type": "address"
        },
        {
          "internalType": "bool",
          "name": "approved",
          "type": "bool"
        }
      ],
      "name": "setApprovalForAll",
      "outputs": [],
      "stateMutability": "nonpayable",
      "type": "function"
    },
    {
      "inputs": [
        {
          "internalType": "address",
          "name": "_add",
          "type": "address"
        }
      ],
      "name": "setCombine2",
      "outputs": [],
      "stateMutability": "nonpayable",
      "type": "function"
    },
    {
      "inputs": [
        {
          "internalType": "uint256",
          "name": "_id",
          "type": "uint256"
        }
      ],
      "name": "setCrew",
      "outputs": [],
      "stateMutability": "nonpayable",
      "type": "function"
    },
    {
      "inputs": [
        {
          "internalType": "address",
          "name": "_add",
          "type": "address"
        }
      ],
      "name": "setMarketplace",
      "outputs": [],
      "stateMutability": "nonpayable",
      "type": "function"
    },
    {
      "inputs": [
        {
          "internalType": "address",
          "name": "_add",
          "type": "address"
        }
      ],
      "name": "setOracleAddress",
      "outputs": [],
      "stateMutability": "nonpayable",
      "type": "function"
    },
    {
      "inputs": [
        {
          "internalType": "address",
          "name": "_add",
          "type": "address"
        }
      ],
      "name": "setPacoCoin",
      "outputs": [],
      "stateMutability": "nonpayable",
      "type": "function"
    },
    {
      "inputs": [
        {
          "internalType": "address",
          "name": "_add",
          "type": "address"
        }
      ],
      "name": "setVendor",
      "outputs": [],
      "stateMutability": "nonpayable",
      "type": "function"
    },
    {
      "inputs": [
        {
          "internalType": "address",
          "name": "",
          "type": "address"
        }
      ],
      "name": "strength",
      "outputs": [
        {
          "internalType": "uint256",
          "name": "",
          "type": "uint256"
        }
      ],
      "stateMutability": "view",
      "type": "function"
    },
    {
      "inputs": [
        {
          "internalType": "address",
          "name": "_add",
          "type": "address"
        }
      ],
      "name": "strr",
      "outputs": [
        {
          "internalType": "uint256",
          "name": "",
          "type": "uint256"
        }
      ],
      "stateMutability": "view",
      "type": "function"
    },
    {
      "inputs": [
        {
          "internalType": "bytes4",
          "name": "interfaceId",
          "type": "bytes4"
        }
      ],
      "name": "supportsInterface",
      "outputs": [
        {
          "internalType": "bool",
          "name": "",
          "type": "bool"
        }
      ],
      "stateMutability": "view",
      "type": "function"
    },
    {
      "inputs": [],
      "name": "symbol",
      "outputs": [
        {
          "internalType": "string",
          "name": "",
          "type": "string"
        }
      ],
      "stateMutability": "view",
      "type": "function"
    },
    {
      "inputs": [
        {
          "internalType": "uint256",
          "name": "tokenId",
          "type": "uint256"
        }
      ],
      "name": "tokenURI",
      "outputs": [
        {
          "internalType": "string",
          "name": "",
          "type": "string"
        }
      ],
      "stateMutability": "view",
      "type": "function"
    },
    {
      "inputs": [
        {
          "internalType": "address",
          "name": "from",
          "type": "address"
        },
        {
          "internalType": "address",
          "name": "to",
          "type": "address"
        },
        {
          "internalType": "uint256",
          "name": "tokenId",
          "type": "uint256"
        }
      ],
      "name": "transferFrom",
      "outputs": [],
      "stateMutability": "nonpayable",
      "type": "function"
    },
    {
      "inputs": [
        {
          "internalType": "address",
          "name": "_from",
          "type": "address"
        },
        {
          "internalType": "address",
          "name": "_to",
          "type": "address"
        },
        {
          "internalType": "uint256",
          "name": "_id",
          "type": "uint256"
        }
      ],
      "name": "transferNfts",
      "outputs": [],
      "stateMutability": "nonpayable",
      "type": "function"
    },
    {
      "inputs": [
        {
          "internalType": "uint256",
          "name": "_id",
          "type": "uint256"
        },
        {
          "internalType": "address",
          "name": "_from",
          "type": "address"
        },
        {
          "internalType": "address",
          "name": "_to",
          "type": "address"
        }
      ],
      "name": "transferNfts",
      "outputs": [],
      "stateMutability": "nonpayable",
      "type": "function"
    },
    {
      "inputs": [
        {
          "internalType": "address",
          "name": "newOwner",
          "type": "address"
        }
      ],
      "name": "transferOwnership",
      "outputs": [],
      "stateMutability": "nonpayable",
      "type": "function"
    },
    {
      "inputs": [],
      "name": "vendorAddress",
      "outputs": [
        {
          "internalType": "address",
          "name": "",
          "type": "address"
        }
      ],
      "stateMutability": "view",
      "type": "function"
    },
    {
      "inputs": [
        {
          "internalType": "uint256",
          "name": "_id",
          "type": "uint256"
        },
        {
          "internalType": "address",
          "name": "_add",
          "type": "address"
        }
      ],
      "name": "verifyIds",
      "outputs": [
        {
          "internalType": "bool",
          "name": "",
          "type": "bool"
        }
      ],
      "stateMutability": "view",
      "type": "function"
    }
  ],
  "bytecode": "0x6080604052600060125560fa6014553480156200001b57600080fd5b506040516200585b3803806200585b8339818101604052810190620000419190620003b8565b818162000063620000576200009f60201b60201c565b620000a760201b60201c565b81600190805190602001906200007b9291906200016b565b508060029080519060200190620000949291906200016b565b5050505050620004a2565b600033905090565b60008060009054906101000a900473ffffffffffffffffffffffffffffffffffffffff169050816000806101000a81548173ffffffffffffffffffffffffffffffffffffffff021916908373ffffffffffffffffffffffffffffffffffffffff1602179055508173ffffffffffffffffffffffffffffffffffffffff168173ffffffffffffffffffffffffffffffffffffffff167f8be0079c531659141344cd1fd0a4f28419497f9722a3daafe3b4186f6b6457e060405160405180910390a35050565b82805462000179906200046c565b90600052602060002090601f0160209004810192826200019d5760008555620001e9565b82601f10620001b857805160ff1916838001178555620001e9565b82800160010185558215620001e9579182015b82811115620001e8578251825591602001919060010190620001cb565b5b509050620001f89190620001fc565b5090565b5b8082111562000217576000816000905550600101620001fd565b5090565b6000604051905090565b600080fd5b600080fd5b600080fd5b600080fd5b6000601f19601f8301169050919050565b7f4e487b7100000000000000000000000000000000000000000000000000000000600052604160045260246000fd5b620002848262000239565b810181811067ffffffffffffffff82111715620002a657620002a56200024a565b5b80604052505050565b6000620002bb6200021b565b9050620002c9828262000279565b919050565b600067ffffffffffffffff821115620002ec57620002eb6200024a565b5b620002f78262000239565b9050602081019050919050565b60005b838110156200032457808201518184015260208101905062000307565b8381111562000334576000848401525b50505050565b6000620003516200034b84620002ce565b620002af565b90508281526020810184848401111562000370576200036f62000234565b5b6200037d84828562000304565b509392505050565b600082601f8301126200039d576200039c6200022f565b5b8151620003af8482602086016200033a565b91505092915050565b60008060408385031215620003d257620003d162000225565b5b600083015167ffffffffffffffff811115620003f357620003f26200022a565b5b620004018582860162000385565b925050602083015167ffffffffffffffff8111156200042557620004246200022a565b5b620004338582860162000385565b9150509250929050565b7f4e487b7100000000000000000000000000000000000000000000000000000000600052602260045260246000fd5b600060028204905060018216806200048557607f821691505b602082108114156200049c576200049b6200043d565b5b50919050565b6153a980620004b26000396000f3fe6080604052600436106102ae5760003560e01c806373ad6c2d11610175578063a22cb465116100dc578063d7e2d10411610095578063f24a534e1161006f578063f24a534e14610af0578063f2fde38b14610b1b578063f5a7976714610b44578063fdb7787f14610b81576102ae565b8063d7e2d10414610a7e578063e985e9c514610a88578063f18ac37714610ac5576102ae565b8063a22cb46514610938578063b7e1b97414610961578063b88d4fde1461099e578063bf3fd6ce146109c7578063c87b56dd14610a04578063c9f0705314610a41576102ae565b80638c44c9251161012e5780638c44c9251461083c5780638da5cb5b14610865578063941ada0e1461089057806395d89b41146108bb57806397d93935146108e6578063a0f2a3661461090f576102ae565b806373ad6c2d1461071a5780637a457772146107435780637bbadb26146107805780637d4b7411146107bd578063852f149f146107e85780638ab5344714610825576102ae565b80634811b14111610219578063638235f7116101d2578063638235f71461062b5780636b40da12146106355780636c70a981146106725780636d9dfc4e1461069d57806370a08231146106c6578063715018a614610703576102ae565b80634811b141146104f75780634b355cfa146105225780634c69c00f1461054b578063602977ad146105745780636343e28c146105b15780636352211e146105ee576102ae565b80632ab8f08a1161026b5780632ab8f08a146103e75780632b1056631461042457806330e9a68e1461044f5780633456ca6e1461047a57806342842e0e146104a5578063458aa7fb146104ce576102ae565b806301ffc9a7146102b357806306fdde03146102f0578063081812fc1461031b578063095ea7b3146103585780630deab8101461038157806323b872dd146103be575b600080fd5b3480156102bf57600080fd5b506102da60048036038101906102d59190613d0f565b610baa565b6040516102e79190613d57565b60405180910390f35b3480156102fc57600080fd5b50610305610c8c565b6040516103129190613e0b565b60405180910390f35b34801561032757600080fd5b50610342600480360381019061033d9190613e63565b610d1e565b60405161034f9190613ed1565b60405180910390f35b34801561036457600080fd5b5061037f600480360381019061037a9190613f18565b610d64565b005b34801561038d57600080fd5b506103a860048036038101906103a39190613f58565b610e7c565b6040516103b59190613f94565b60405180910390f35b3480156103ca57600080fd5b506103e560048036038101906103e09190613faf565b610e94565b005b3480156103f357600080fd5b5061040e60048036038101906104099190614002565b610ef4565b60405161041b9190613d57565b60405180910390f35b34801561043057600080fd5b50610439610f60565b6040516104469190614100565b60405180910390f35b34801561045b57600080fd5b506104646110b1565b6040516104719190613f94565b60405180910390f35b34801561048657600080fd5b5061048f6110b7565b60405161049c9190613f94565b60405180910390f35b3480156104b157600080fd5b506104cc60048036038101906104c79190613faf565b6110bd565b005b3480156104da57600080fd5b506104f560048036038101906104f09190613f58565b6110dd565b005b34801561050357600080fd5b5061050c61116a565b6040516105199190613ed1565b60405180910390f35b34801561052e57600080fd5b5061054960048036038101906105449190613f58565b611190565b005b34801561055757600080fd5b50610572600480360381019061056d9190613f58565b61121d565b005b34801561058057600080fd5b5061059b60048036038101906105969190613f58565b611269565b6040516105a89190613f94565b60405180910390f35b3480156105bd57600080fd5b506105d860048036038101906105d39190613f58565b611281565b6040516105e59190613f94565b60405180910390f35b3480156105fa57600080fd5b5061061560048036038101906106109190613e63565b611299565b6040516106229190613ed1565b60405180910390f35b61063361134b565b005b34801561064157600080fd5b5061065c60048036038101906106579190613e63565b6113f0565b6040516106699190614100565b60405180910390f35b34801561067e57600080fd5b50610687611584565b6040516106949190614100565b60405180910390f35b3480156106a957600080fd5b506106c460048036038101906106bf9190613e63565b6116fa565b005b3480156106d257600080fd5b506106ed60048036038101906106e89190613f58565b6117fd565b6040516106fa9190613f94565b60405180910390f35b34801561070f57600080fd5b506107186118b5565b005b34801561072657600080fd5b50610741600480360381019061073c9190613f58565b6118c9565b005b34801561074f57600080fd5b5061076a60048036038101906107659190613e63565b611956565b6040516107779190613d57565b60405180910390f35b34801561078c57600080fd5b506107a760048036038101906107a29190613e63565b611992565b6040516107b49190613d57565b60405180910390f35b3480156107c957600080fd5b506107d26119ce565b6040516107df9190613ed1565b60405180910390f35b3480156107f457600080fd5b5061080f600480360381019061080a9190613f58565b6119f8565b60405161081c9190613f94565b60405180910390f35b34801561083157600080fd5b5061083a611a46565b005b34801561084857600080fd5b50610863600480360381019061085e9190613faf565b611c63565b005b34801561087157600080fd5b5061087a611e61565b6040516108879190613ed1565b60405180910390f35b34801561089c57600080fd5b506108a5611e8a565b6040516108b29190613f94565b60405180910390f35b3480156108c757600080fd5b506108d0611ed1565b6040516108dd9190613e0b565b60405180910390f35b3480156108f257600080fd5b5061090d60048036038101906109089190613f58565b611f63565b005b34801561091b57600080fd5b5061093660048036038101906109319190613f18565b611ff0565b005b34801561094457600080fd5b5061095f600480360381019061095a919061414e565b6122a9565b005b34801561096d57600080fd5b5061098860048036038101906109839190613e63565b6122bf565b6040516109959190613f94565b60405180910390f35b3480156109aa57600080fd5b506109c560048036038101906109c091906142c3565b6122ee565b005b3480156109d357600080fd5b506109ee60048036038101906109e99190613e63565b612350565b6040516109fb9190613ed1565b60405180910390f35b348015610a1057600080fd5b50610a2b6004803603810190610a269190613e63565b612383565b604051610a389190613e0b565b60405180910390f35b348015610a4d57600080fd5b50610a686004803603810190610a639190613f58565b6123eb565b604051610a759190614100565b60405180910390f35b610a8661253e565b005b348015610a9457600080fd5b50610aaf6004803603810190610aaa9190614346565b6128bb565b604051610abc9190613d57565b60405180910390f35b348015610ad157600080fd5b50610ada61294f565b604051610ae79190614100565b60405180910390f35b348015610afc57600080fd5b50610b05612ac5565b604051610b129190613ed1565b60405180910390f35b348015610b2757600080fd5b50610b426004803603810190610b3d9190613f58565b612aeb565b005b348015610b5057600080fd5b50610b6b6004803603810190610b669190613f58565b612b6f565b604051610b789190613f94565b60405180910390f35b348015610b8d57600080fd5b50610ba86004803603810190610ba39190614386565b612bbd565b005b60007f80ac58cd000000000000000000000000000000000000000000000000000000007bffffffffffffffffffffffffffffffffffffffffffffffffffffffff1916827bffffffffffffffffffffffffffffffffffffffffffffffffffffffff19161480610c7557507f5b5e139f000000000000000000000000000000000000000000000000000000007bffffffffffffffffffffffffffffffffffffffffffffffffffffffff1916827bffffffffffffffffffffffffffffffffffffffffffffffffffffffff1916145b80610c855750610c8482612d6d565b5b9050919050565b606060018054610c9b90614408565b80601f0160208091040260200160405190810160405280929190818152602001828054610cc790614408565b8015610d145780601f10610ce957610100808354040283529160200191610d14565b820191906000526020600020905b815481529060010190602001808311610cf757829003601f168201915b5050505050905090565b6000610d2982612dd7565b6005600083815260200190815260200160002060009054906101000a900473ffffffffffffffffffffffffffffffffffffffff169050919050565b6000610d6f82611299565b90508073ffffffffffffffffffffffffffffffffffffffff168373ffffffffffffffffffffffffffffffffffffffff161415610de0576040517f08c379a0000000000000000000000000000000000000000000000000000000008152600401610dd7906144ac565b60405180910390fd5b8073ffffffffffffffffffffffffffffffffffffffff16610dff612e22565b73ffffffffffffffffffffffffffffffffffffffff161480610e2e5750610e2d81610e28612e22565b6128bb565b5b610e6d576040517f08c379a0000000000000000000000000000000000000000000000000000000008152600401610e649061453e565b60405180910390fd5b610e778383612e2a565b505050565b600e6020528060005260406000206000915090505481565b610ea5610e9f612e22565b82612ee3565b610ee4576040517f08c379a0000000000000000000000000000000000000000000000000000000008152600401610edb906145d0565b60405180910390fd5b610eef838383612f78565b505050565b6000600f600084815260200190815260200160002060009054906101000a900473ffffffffffffffffffffffffffffffffffffffff1673ffffffffffffffffffffffffffffffffffffffff168273ffffffffffffffffffffffffffffffffffffffff1614905092915050565b6060600080601060003373ffffffffffffffffffffffffffffffffffffffff1673ffffffffffffffffffffffffffffffffffffffff1681526020019081526020016000205467ffffffffffffffff811115610fbe57610fbd614198565b5b604051908082528060200260200182016040528015610fec5781602001602082028036833780820191505090505b50905060005b600d805490508110156110a8573373ffffffffffffffffffffffffffffffffffffffff16600f600083815260200190815260200160002060009054906101000a900473ffffffffffffffffffffffffffffffffffffffff1673ffffffffffffffffffffffffffffffffffffffff161415611095578082848151811061107a576110796145f0565b5b60200260200101818152505082806110919061464e565b9350505b80806110a09061464e565b915050610ff2565b50809250505090565b60135481565b60145481565b6110d8838383604051806020016040528060008152506122ee565b505050565b6110e56131df565b80600960006101000a81548173ffffffffffffffffffffffffffffffffffffffff021916908373ffffffffffffffffffffffffffffffffffffffff16021790555080600a60006101000a81548173ffffffffffffffffffffffffffffffffffffffff021916908373ffffffffffffffffffffffffffffffffffffffff16021790555050565b601760009054906101000a900473ffffffffffffffffffffffffffffffffffffffff1681565b6111986131df565b80600b60006101000a81548173ffffffffffffffffffffffffffffffffffffffff021916908373ffffffffffffffffffffffffffffffffffffffff16021790555080600c60006101000a81548173ffffffffffffffffffffffffffffffffffffffff021916908373ffffffffffffffffffffffffffffffffffffffff16021790555050565b6112256131df565b80601560006101000a81548173ffffffffffffffffffffffffffffffffffffffff021916908373ffffffffffffffffffffffffffffffffffffffff16021790555050565b60106020528060005260406000206000915090505481565b60116020528060005260406000206000915090505481565b6000806003600084815260200190815260200160002060009054906101000a900473ffffffffffffffffffffffffffffffffffffffff169050600073ffffffffffffffffffffffffffffffffffffffff168173ffffffffffffffffffffffffffffffffffffffff161415611342576040517f08c379a0000000000000000000000000000000000000000000000000000000008152600401611339906146e3565b60405180910390fd5b80915050919050565b662386f26fc10000341461135e57600080fd5b6001600e60003373ffffffffffffffffffffffffffffffffffffffff1673ffffffffffffffffffffffffffffffffffffffff16815260200190815260200160002060008282546113ae9190614703565b925050819055507fd873be070ab7bd226981a41b0f9ea3ae22c5de5c80bf889b44fbb337b2b0ed4f33426040516113e6929190614759565b60405180910390a1565b60606000600467ffffffffffffffff81111561140f5761140e614198565b5b60405190808252806020026020018201604052801561143d5781602001602082028036833780820191505090505b5090506000600d8481548110611456576114556145f0565b5b90600052602060002090600602016000015482828151811061147b5761147a6145f0565b5b602002602001018181525050600d848154811061149b5761149a6145f0565b5b906000526020600020906006020160020154826001836114bb9190614703565b815181106114cc576114cb6145f0565b5b602002602001018181525050600d84815481106114ec576114eb6145f0565b5b9060005260206000209060060201600301548260028361150c9190614703565b8151811061151d5761151c6145f0565b5b602002602001018181525050600d848154811061153d5761153c6145f0565b5b9060005260206000209060060201600401548260038361155d9190614703565b8151811061156e5761156d6145f0565b5b6020026020010181815250508192505050919050565b6060600080601060003373ffffffffffffffffffffffffffffffffffffffff1673ffffffffffffffffffffffffffffffffffffffff1681526020019081526020016000205467ffffffffffffffff8111156115e2576115e1614198565b5b6040519080825280602002602001820160405280156116105781602001602082028036833780820191505090505b50905060005b600d805490508110156116f1573373ffffffffffffffffffffffffffffffffffffffff16600f600083815260200190815260200160002060009054906101000a900473ffffffffffffffffffffffffffffffffffffffff1673ffffffffffffffffffffffffffffffffffffffff1614156116de57600d818154811061169e5761169d6145f0565b5b9060005260206000209060060201600301548284815181106116c3576116c26145f0565b5b60200260200101818152505082806116da9061464e565b9350505b80806116e99061464e565b915050611616565b50809250505090565b600a60009054906101000a900473ffffffffffffffffffffffffffffffffffffffff1673ffffffffffffffffffffffffffffffffffffffff163373ffffffffffffffffffffffffffffffffffffffff161461178a576040517f08c379a0000000000000000000000000000000000000000000000000000000008152600401611781906147ce565b60405180910390fd5b600d818154811061179e5761179d6145f0565b5b906000526020600020906006020160050160009054906101000a900460ff1615600d82815481106117d2576117d16145f0565b5b906000526020600020906006020160050160006101000a81548160ff02191690831515021790555050565b60008073ffffffffffffffffffffffffffffffffffffffff168273ffffffffffffffffffffffffffffffffffffffff16141561186e576040517f08c379a000000000000000000000000000000000000000000000000000000000815260040161186590614860565b60405180910390fd5b600460008373ffffffffffffffffffffffffffffffffffffffff1673ffffffffffffffffffffffffffffffffffffffff168152602001908152602001600020549050919050565b6118bd6131df565b6118c7600061325d565b565b6118d16131df565b80600760006101000a81548173ffffffffffffffffffffffffffffffffffffffff021916908373ffffffffffffffffffffffffffffffffffffffff16021790555080600860006101000a81548173ffffffffffffffffffffffffffffffffffffffff021916908373ffffffffffffffffffffffffffffffffffffffff16021790555050565b6000600d828154811061196c5761196b6145f0565b5b906000526020600020906006020160050160009054906101000a900460ff169050919050565b6000600d82815481106119a8576119a76145f0565b5b906000526020600020906006020160050160009054906101000a900460ff169050919050565b6000601760009054906101000a900473ffffffffffffffffffffffffffffffffffffffff16905090565b600080601160008473ffffffffffffffffffffffffffffffffffffffff1673ffffffffffffffffffffffffffffffffffffffff16815260200190815260200160002054905080915050919050565b60006040518060c001604052806001815260200160125481526020016001815260200160018152602001600a8152602001600015158152509050600d819080600181540180825580915050600190039060005260206000209060060201600090919091909150600082015181600001556020820151816001015560408201518160020155606082015181600301556080820151816004015560a08201518160050160006101000a81548160ff0219169083151502179055505050611b0c33601254613321565b33600f6000601254815260200190815260200160002060006101000a81548173ffffffffffffffffffffffffffffffffffffffff021916908373ffffffffffffffffffffffffffffffffffffffff160217905550601060003373ffffffffffffffffffffffffffffffffffffffff1673ffffffffffffffffffffffffffffffffffffffff1681526020019081526020016000206000815480929190611bb09061464e565b91905055506001601160003373ffffffffffffffffffffffffffffffffffffffff1673ffffffffffffffffffffffffffffffffffffffff1681526020019081526020016000206000828254611c059190614703565b925050819055507fdbe82851b2d09154f664d67cc6e17ef02f33aeacacff618708655761a1ec71b56012546001604051611c409291906148c5565b60405180910390a160126000815480929190611c5b9061464e565b919050555050565b600860009054906101000a900473ffffffffffffffffffffffffffffffffffffffff1673ffffffffffffffffffffffffffffffffffffffff163373ffffffffffffffffffffffffffffffffffffffff1614611cbd57600080fd5b6000601060008573ffffffffffffffffffffffffffffffffffffffff1673ffffffffffffffffffffffffffffffffffffffff1681526020019081526020016000205411611d3f576040517f08c379a0000000000000000000000000000000000000000000000000000000008152600401611d369061493a565b60405180910390fd5b8273ffffffffffffffffffffffffffffffffffffffff16600f600083815260200190815260200160002060009054906101000a900473ffffffffffffffffffffffffffffffffffffffff1673ffffffffffffffffffffffffffffffffffffffff1614611daa57600080fd5b611db58383836110bd565b81600f600083815260200190815260200160002060006101000a81548173ffffffffffffffffffffffffffffffffffffffff021916908373ffffffffffffffffffffffffffffffffffffffff160217905550601060008473ffffffffffffffffffffffffffffffffffffffff1673ffffffffffffffffffffffffffffffffffffffff1681526020019081526020016000206000815480929190611e579061495a565b9190505550505050565b60008060009054906101000a900473ffffffffffffffffffffffffffffffffffffffff16905090565b6000600e60003373ffffffffffffffffffffffffffffffffffffffff1673ffffffffffffffffffffffffffffffffffffffff16815260200190815260200160002054905090565b606060028054611ee090614408565b80601f0160208091040260200160405190810160405280929190818152602001828054611f0c90614408565b8015611f595780601f10611f2e57610100808354040283529160200191611f59565b820191906000526020600020905b815481529060010190602001808311611f3c57829003601f168201915b5050505050905090565b611f6b6131df565b80601660006101000a81548173ffffffffffffffffffffffffffffffffffffffff021916908373ffffffffffffffffffffffffffffffffffffffff16021790555080601760006101000a81548173ffffffffffffffffffffffffffffffffffffffff021916908373ffffffffffffffffffffffffffffffffffffffff16021790555050565b601560009054906101000a900473ffffffffffffffffffffffffffffffffffffffff1673ffffffffffffffffffffffffffffffffffffffff163373ffffffffffffffffffffffffffffffffffffffff1614612080576040517f08c379a0000000000000000000000000000000000000000000000000000000008152600401612077906149d0565b60405180910390fd5b600061208b8261337a565b905060006040518060c00160405280838152602001601254815260200160018152602001838152602001600a8152602001600015158152509050600d819080600181540180825580915050600190039060005260206000209060060201600090919091909150600082015181600001556020820151816001015560408201518160020155606082015181600301556080820151816004015560a08201518160050160006101000a81548160ff021916908315150217905550505061215184601254613321565b83600f6000601254815260200190815260200160002060006101000a81548173ffffffffffffffffffffffffffffffffffffffff021916908373ffffffffffffffffffffffffffffffffffffffff160217905550601060008573ffffffffffffffffffffffffffffffffffffffff1673ffffffffffffffffffffffffffffffffffffffff16815260200190815260200160002060008154809291906121f59061464e565b919050555081601160008673ffffffffffffffffffffffffffffffffffffffff1673ffffffffffffffffffffffffffffffffffffffff16815260200190815260200160002060008282546122499190614703565b925050819055507fdbe82851b2d09154f664d67cc6e17ef02f33aeacacff618708655761a1ec71b5601254836040516122839291906149f0565b60405180910390a16012600081548092919061229e9061464e565b919050555050505050565b6122bb6122b4612e22565b83836133b7565b5050565b6000600d82815481106122d5576122d46145f0565b5b9060005260206000209060060201600001549050919050565b6122ff6122f9612e22565b83612ee3565b61233e576040517f08c379a0000000000000000000000000000000000000000000000000000000008152600401612335906145d0565b60405180910390fd5b61234a84848484613524565b50505050565b600f6020528060005260406000206000915054906101000a900473ffffffffffffffffffffffffffffffffffffffff1681565b606061238e82612dd7565b6000612398613580565b905060008151116123b857604051806020016040528060008152506123e3565b806123c284613597565b6040516020016123d3929190614a55565b6040516020818303038152906040525b915050919050565b6060600080601060008573ffffffffffffffffffffffffffffffffffffffff1673ffffffffffffffffffffffffffffffffffffffff1681526020019081526020016000205467ffffffffffffffff81111561244957612448614198565b5b6040519080825280602002602001820160405280156124775781602001602082028036833780820191505090505b50905060005b600d80549050811015612533578473ffffffffffffffffffffffffffffffffffffffff16600f600083815260200190815260200160002060009054906101000a900473ffffffffffffffffffffffffffffffffffffffff1673ffffffffffffffffffffffffffffffffffffffff1614156125205780828481518110612505576125046145f0565b5b602002602001018181525050828061251c9061464e565b9350505b808061252b9061464e565b91505061247d565b508092505050919050565b601454600b60009054906101000a900473ffffffffffffffffffffffffffffffffffffffff1673ffffffffffffffffffffffffffffffffffffffff1663dd62ed3e33306040518363ffffffff1660e01b815260040161259e929190614a79565b60206040518083038186803b1580156125b657600080fd5b505afa1580156125ca573d6000803e3d6000fd5b505050506040513d601f19601f820116820180604052508101906125ee9190614ab7565b101561262f576040517f08c379a000000000000000000000000000000000000000000000000000000000815260040161262690614b30565b60405180910390fd5b601454600b60009054906101000a900473ffffffffffffffffffffffffffffffffffffffff1673ffffffffffffffffffffffffffffffffffffffff166370a08231336040518263ffffffff1660e01b815260040161268d9190613ed1565b60206040518083038186803b1580156126a557600080fd5b505afa1580156126b9573d6000803e3d6000fd5b505050506040513d601f19601f820116820180604052508101906126dd9190614ab7565b101561271e576040517f08c379a000000000000000000000000000000000000000000000000000000000815260040161271590614b9c565b60405180910390fd5b6000670de0b6b3a76400006014546127369190614bbc565b9050600b60009054906101000a900473ffffffffffffffffffffffffffffffffffffffff1673ffffffffffffffffffffffffffffffffffffffff166323b872dd3330846040518463ffffffff1660e01b815260040161279793929190614c16565b602060405180830381600087803b1580156127b157600080fd5b505af11580156127c5573d6000803e3d6000fd5b505050506040513d601f19601f820116820180604052508101906127e99190614c62565b612828576040517f08c379a000000000000000000000000000000000000000000000000000000000815260040161281f90614cdb565b60405180910390fd5b6001600e60003373ffffffffffffffffffffffffffffffffffffffff1673ffffffffffffffffffffffffffffffffffffffff16815260200190815260200160002060008282546128789190614703565b925050819055507fd873be070ab7bd226981a41b0f9ea3ae22c5de5c80bf889b44fbb337b2b0ed4f33426040516128b0929190614759565b60405180910390a150565b6000600660008473ffffffffffffffffffffffffffffffffffffffff1673ffffffffffffffffffffffffffffffffffffffff16815260200190815260200160002060008373ffffffffffffffffffffffffffffffffffffffff1673ffffffffffffffffffffffffffffffffffffffff16815260200190815260200160002060009054906101000a900460ff16905092915050565b6060600080601060003373ffffffffffffffffffffffffffffffffffffffff1673ffffffffffffffffffffffffffffffffffffffff1681526020019081526020016000205467ffffffffffffffff8111156129ad576129ac614198565b5b6040519080825280602002602001820160405280156129db5781602001602082028036833780820191505090505b50905060005b600d80549050811015612abc573373ffffffffffffffffffffffffffffffffffffffff16600f600083815260200190815260200160002060009054906101000a900473ffffffffffffffffffffffffffffffffffffffff1673ffffffffffffffffffffffffffffffffffffffff161415612aa957600d8181548110612a6957612a686145f0565b5b906000526020600020906006020160000154828481518110612a8e57612a8d6145f0565b5b6020026020010181815250508280612aa59061464e565b9350505b8080612ab49061464e565b9150506129e1565b50809250505090565b601560009054906101000a900473ffffffffffffffffffffffffffffffffffffffff1681565b612af36131df565b600073ffffffffffffffffffffffffffffffffffffffff168173ffffffffffffffffffffffffffffffffffffffff161415612b63576040517f08c379a0000000000000000000000000000000000000000000000000000000008152600401612b5a90614d6d565b60405180910390fd5b612b6c8161325d565b50565b600080601060008473ffffffffffffffffffffffffffffffffffffffff1673ffffffffffffffffffffffffffffffffffffffff16815260200190815260200160002054905080915050919050565b601760009054906101000a900473ffffffffffffffffffffffffffffffffffffffff1673ffffffffffffffffffffffffffffffffffffffff163373ffffffffffffffffffffffffffffffffffffffff1614612c4d576040517f08c379a0000000000000000000000000000000000000000000000000000000008152600401612c4490614dd9565b60405180910390fd5b612c68828285604051806020016040528060008152506122ee565b80600f600085815260200190815260200160002060006101000a81548173ffffffffffffffffffffffffffffffffffffffff021916908373ffffffffffffffffffffffffffffffffffffffff1602179055506001601060008473ffffffffffffffffffffffffffffffffffffffff1673ffffffffffffffffffffffffffffffffffffffff1681526020019081526020016000206000828254612d0a9190614df9565b925050819055506001601060008373ffffffffffffffffffffffffffffffffffffffff1673ffffffffffffffffffffffffffffffffffffffff1681526020019081526020016000206000828254612d619190614703565b92505081905550505050565b60007f01ffc9a7000000000000000000000000000000000000000000000000000000007bffffffffffffffffffffffffffffffffffffffffffffffffffffffff1916827bffffffffffffffffffffffffffffffffffffffffffffffffffffffff1916149050919050565b612de0816136f8565b612e1f576040517f08c379a0000000000000000000000000000000000000000000000000000000008152600401612e16906146e3565b60405180910390fd5b50565b600033905090565b816005600083815260200190815260200160002060006101000a81548173ffffffffffffffffffffffffffffffffffffffff021916908373ffffffffffffffffffffffffffffffffffffffff160217905550808273ffffffffffffffffffffffffffffffffffffffff16612e9d83611299565b73ffffffffffffffffffffffffffffffffffffffff167f8c5be1e5ebec7d5bd14f71427d1e84f3dd0314c0f7b2291e5b200ac8c7c3b92560405160405180910390a45050565b600080612eef83611299565b90508073ffffffffffffffffffffffffffffffffffffffff168473ffffffffffffffffffffffffffffffffffffffff161480612f315750612f3081856128bb565b5b80612f6f57508373ffffffffffffffffffffffffffffffffffffffff16612f5784610d1e565b73ffffffffffffffffffffffffffffffffffffffff16145b91505092915050565b8273ffffffffffffffffffffffffffffffffffffffff16612f9882611299565b73ffffffffffffffffffffffffffffffffffffffff1614612fee576040517f08c379a0000000000000000000000000000000000000000000000000000000008152600401612fe590614e9f565b60405180910390fd5b600073ffffffffffffffffffffffffffffffffffffffff168273ffffffffffffffffffffffffffffffffffffffff16141561305e576040517f08c379a000000000000000000000000000000000000000000000000000000000815260040161305590614f31565b60405180910390fd5b613069838383613764565b613074600082612e2a565b6001600460008573ffffffffffffffffffffffffffffffffffffffff1673ffffffffffffffffffffffffffffffffffffffff16815260200190815260200160002060008282546130c49190614df9565b925050819055506001600460008473ffffffffffffffffffffffffffffffffffffffff1673ffffffffffffffffffffffffffffffffffffffff168152602001908152602001600020600082825461311b9190614703565b92505081905550816003600083815260200190815260200160002060006101000a81548173ffffffffffffffffffffffffffffffffffffffff021916908373ffffffffffffffffffffffffffffffffffffffff160217905550808273ffffffffffffffffffffffffffffffffffffffff168473ffffffffffffffffffffffffffffffffffffffff167fddf252ad1be2c89b69c2b068fc378daa952ba7f163c4a11628f55a4df523b3ef60405160405180910390a46131da838383613769565b505050565b6131e7612e22565b73ffffffffffffffffffffffffffffffffffffffff16613205611e61565b73ffffffffffffffffffffffffffffffffffffffff161461325b576040517f08c379a000000000000000000000000000000000000000000000000000000000815260040161325290614f9d565b60405180910390fd5b565b60008060009054906101000a900473ffffffffffffffffffffffffffffffffffffffff169050816000806101000a81548173ffffffffffffffffffffffffffffffffffffffff021916908373ffffffffffffffffffffffffffffffffffffffff1602179055508173ffffffffffffffffffffffffffffffffffffffff168173ffffffffffffffffffffffffffffffffffffffff167f8be0079c531659141344cd1fd0a4f28419497f9722a3daafe3b4186f6b6457e060405160405180910390a35050565b61332b828261376e565b61333760008383613948565b613376576040517f08c379a000000000000000000000000000000000000000000000000000000000815260040161336d90615009565b60405180910390fd5b5050565b600080604b831161338e57600190506133ae565b605f831161339f57600290506133ad565b605f83106133ac57600390505b5b5b80915050919050565b8173ffffffffffffffffffffffffffffffffffffffff168373ffffffffffffffffffffffffffffffffffffffff161415613426576040517f08c379a000000000000000000000000000000000000000000000000000000000815260040161341d90615075565b60405180910390fd5b80600660008573ffffffffffffffffffffffffffffffffffffffff1673ffffffffffffffffffffffffffffffffffffffff16815260200190815260200160002060008473ffffffffffffffffffffffffffffffffffffffff1673ffffffffffffffffffffffffffffffffffffffff16815260200190815260200160002060006101000a81548160ff0219169083151502179055508173ffffffffffffffffffffffffffffffffffffffff168373ffffffffffffffffffffffffffffffffffffffff167f17307eab39ab6107e8899845ad3d59bd9653f200f220920489ca2b5937696c31836040516135179190613d57565b60405180910390a3505050565b61352f848484612f78565b61353b84848484613ac6565b61357a576040517f08c379a000000000000000000000000000000000000000000000000000000000815260040161357190615107565b60405180910390fd5b50505050565b606060405180602001604052806000815250905090565b606060008214156135df576040518060400160405280600181526020017f300000000000000000000000000000000000000000000000000000000000000081525090506136f3565b600082905060005b600082146136115780806135fa9061464e565b915050600a8261360a9190615156565b91506135e7565b60008167ffffffffffffffff81111561362d5761362c614198565b5b6040519080825280601f01601f19166020018201604052801561365f5781602001600182028036833780820191505090505b5090505b600085146136ec576001826136789190614df9565b9150600a856136879190615187565b60306136939190614703565b60f81b8183815181106136a9576136a86145f0565b5b60200101907effffffffffffffffffffffffffffffffffffffffffffffffffffffffffffff1916908160001a905350600a856136e59190615156565b9450613663565b8093505050505b919050565b60008073ffffffffffffffffffffffffffffffffffffffff166003600084815260200190815260200160002060009054906101000a900473ffffffffffffffffffffffffffffffffffffffff1673ffffffffffffffffffffffffffffffffffffffff1614159050919050565b505050565b505050565b600073ffffffffffffffffffffffffffffffffffffffff168273ffffffffffffffffffffffffffffffffffffffff1614156137de576040517f08c379a00000000000000000000000000000000000000000000000000000000081526004016137d590615204565b60405180910390fd5b6137e7816136f8565b15613827576040517f08c379a000000000000000000000000000000000000000000000000000000000815260040161381e90615270565b60405180910390fd5b61383360008383613764565b6001600460008473ffffffffffffffffffffffffffffffffffffffff1673ffffffffffffffffffffffffffffffffffffffff16815260200190815260200160002060008282546138839190614703565b92505081905550816003600083815260200190815260200160002060006101000a81548173ffffffffffffffffffffffffffffffffffffffff021916908373ffffffffffffffffffffffffffffffffffffffff160217905550808273ffffffffffffffffffffffffffffffffffffffff16600073ffffffffffffffffffffffffffffffffffffffff167fddf252ad1be2c89b69c2b068fc378daa952ba7f163c4a11628f55a4df523b3ef60405160405180910390a461394460008383613769565b5050565b600061395383613c5d565b15613aba578273ffffffffffffffffffffffffffffffffffffffff1663eeafbddc61397c612e22565b86856040518463ffffffff1660e01b815260040161399c93929190614c16565b602060405180830381600087803b1580156139b657600080fd5b505af19250505080156139e757506040513d601f19601f820116820180604052508101906139e491906152a5565b60015b613a6a573d8060008114613a17576040519150601f19603f3d011682016040523d82523d6000602084013e613a1c565b606091505b50600081511415613a62576040517f08c379a0000000000000000000000000000000000000000000000000000000008152600401613a5990615107565b60405180910390fd5b805181602001fd5b63150b7a0260e01b7bffffffffffffffffffffffffffffffffffffffffffffffffffffffff1916817bffffffffffffffffffffffffffffffffffffffffffffffffffffffff191614915050613abf565b600190505b9392505050565b6000613ae78473ffffffffffffffffffffffffffffffffffffffff16613c80565b15613c50578373ffffffffffffffffffffffffffffffffffffffff1663150b7a02613b10612e22565b8786866040518563ffffffff1660e01b8152600401613b329493929190615327565b602060405180830381600087803b158015613b4c57600080fd5b505af1925050508015613b7d57506040513d601f19601f82011682018060405250810190613b7a91906152a5565b60015b613c00573d8060008114613bad576040519150601f19603f3d011682016040523d82523d6000602084013e613bb2565b606091505b50600081511415613bf8576040517f08c379a0000000000000000000000000000000000000000000000000000000008152600401613bef90615107565b60405180910390fd5b805181602001fd5b63150b7a0260e01b7bffffffffffffffffffffffffffffffffffffffffffffffffffffffff1916817bffffffffffffffffffffffffffffffffffffffffffffffffffffffff191614915050613c55565b600190505b949350505050565b6000808273ffffffffffffffffffffffffffffffffffffffff163b119050919050565b6000808273ffffffffffffffffffffffffffffffffffffffff163b119050919050565b6000604051905090565b600080fd5b600080fd5b60007fffffffff0000000000000000000000000000000000000000000000000000000082169050919050565b613cec81613cb7565b8114613cf757600080fd5b50565b600081359050613d0981613ce3565b92915050565b600060208284031215613d2557613d24613cad565b5b6000613d3384828501613cfa565b91505092915050565b60008115159050919050565b613d5181613d3c565b82525050565b6000602082019050613d6c6000830184613d48565b92915050565b600081519050919050565b600082825260208201905092915050565b60005b83811015613dac578082015181840152602081019050613d91565b83811115613dbb576000848401525b50505050565b6000601f19601f8301169050919050565b6000613ddd82613d72565b613de78185613d7d565b9350613df7818560208601613d8e565b613e0081613dc1565b840191505092915050565b60006020820190508181036000830152613e258184613dd2565b905092915050565b6000819050919050565b613e4081613e2d565b8114613e4b57600080fd5b50565b600081359050613e5d81613e37565b92915050565b600060208284031215613e7957613e78613cad565b5b6000613e8784828501613e4e565b91505092915050565b600073ffffffffffffffffffffffffffffffffffffffff82169050919050565b6000613ebb82613e90565b9050919050565b613ecb81613eb0565b82525050565b6000602082019050613ee66000830184613ec2565b92915050565b613ef581613eb0565b8114613f0057600080fd5b50565b600081359050613f1281613eec565b92915050565b60008060408385031215613f2f57613f2e613cad565b5b6000613f3d85828601613f03565b9250506020613f4e85828601613e4e565b9150509250929050565b600060208284031215613f6e57613f6d613cad565b5b6000613f7c84828501613f03565b91505092915050565b613f8e81613e2d565b82525050565b6000602082019050613fa96000830184613f85565b92915050565b600080600060608486031215613fc857613fc7613cad565b5b6000613fd686828701613f03565b9350506020613fe786828701613f03565b9250506040613ff886828701613e4e565b9150509250925092565b6000806040838503121561401957614018613cad565b5b600061402785828601613e4e565b925050602061403885828601613f03565b9150509250929050565b600081519050919050565b600082825260208201905092915050565b6000819050602082019050919050565b61407781613e2d565b82525050565b6000614089838361406e565b60208301905092915050565b6000602082019050919050565b60006140ad82614042565b6140b7818561404d565b93506140c28361405e565b8060005b838110156140f35781516140da888261407d565b97506140e583614095565b9250506001810190506140c6565b5085935050505092915050565b6000602082019050818103600083015261411a81846140a2565b905092915050565b61412b81613d3c565b811461413657600080fd5b50565b60008135905061414881614122565b92915050565b6000806040838503121561416557614164613cad565b5b600061417385828601613f03565b925050602061418485828601614139565b9150509250929050565b600080fd5b600080fd5b7f4e487b7100000000000000000000000000000000000000000000000000000000600052604160045260246000fd5b6141d082613dc1565b810181811067ffffffffffffffff821117156141ef576141ee614198565b5b80604052505050565b6000614202613ca3565b905061420e82826141c7565b919050565b600067ffffffffffffffff82111561422e5761422d614198565b5b61423782613dc1565b9050602081019050919050565b82818337600083830152505050565b600061426661426184614213565b6141f8565b90508281526020810184848401111561428257614281614193565b5b61428d848285614244565b509392505050565b600082601f8301126142aa576142a961418e565b5b81356142ba848260208601614253565b91505092915050565b600080600080608085870312156142dd576142dc613cad565b5b60006142eb87828801613f03565b94505060206142fc87828801613f03565b935050604061430d87828801613e4e565b925050606085013567ffffffffffffffff81111561432e5761432d613cb2565b5b61433a87828801614295565b91505092959194509250565b6000806040838503121561435d5761435c613cad565b5b600061436b85828601613f03565b925050602061437c85828601613f03565b9150509250929050565b60008060006060848603121561439f5761439e613cad565b5b60006143ad86828701613e4e565b93505060206143be86828701613f03565b92505060406143cf86828701613f03565b9150509250925092565b7f4e487b7100000000000000000000000000000000000000000000000000000000600052602260045260246000fd5b6000600282049050600182168061442057607f821691505b60208210811415614434576144336143d9565b5b50919050565b7f4552433732313a20617070726f76616c20746f2063757272656e74206f776e6560008201527f7200000000000000000000000000000000000000000000000000000000000000602082015250565b6000614496602183613d7d565b91506144a18261443a565b604082019050919050565b600060208201905081810360008301526144c581614489565b9050919050565b7f4552433732313a20617070726f76652063616c6c6572206973206e6f7420746f60008201527f6b656e206f776e6572206e6f7220617070726f76656420666f7220616c6c0000602082015250565b6000614528603e83613d7d565b9150614533826144cc565b604082019050919050565b600060208201905081810360008301526145578161451b565b9050919050565b7f4552433732313a2063616c6c6572206973206e6f7420746f6b656e206f776e6560008201527f72206e6f7220617070726f766564000000000000000000000000000000000000602082015250565b60006145ba602e83613d7d565b91506145c58261455e565b604082019050919050565b600060208201905081810360008301526145e9816145ad565b9050919050565b7f4e487b7100000000000000000000000000000000000000000000000000000000600052603260045260246000fd5b7f4e487b7100000000000000000000000000000000000000000000000000000000600052601160045260246000fd5b600061465982613e2d565b91507fffffffffffffffffffffffffffffffffffffffffffffffffffffffffffffffff82141561468c5761468b61461f565b5b600182019050919050565b7f4552433732313a20696e76616c696420746f6b656e2049440000000000000000600082015250565b60006146cd601883613d7d565b91506146d882614697565b602082019050919050565b600060208201905081810360008301526146fc816146c0565b9050919050565b600061470e82613e2d565b915061471983613e2d565b9250827fffffffffffffffffffffffffffffffffffffffffffffffffffffffffffffffff0382111561474e5761474d61461f565b5b828201905092915050565b600060408201905061476e6000830185613ec2565b61477b6020830184613f85565b9392505050565b7f596f75206172656e74206120636f6e74726163742e0000000000000000000000600082015250565b60006147b8601583613d7d565b91506147c382614782565b602082019050919050565b600060208201905081810360008301526147e7816147ab565b9050919050565b7f4552433732313a2061646472657373207a65726f206973206e6f74206120766160008201527f6c6964206f776e65720000000000000000000000000000000000000000000000602082015250565b600061484a602983613d7d565b9150614855826147ee565b604082019050919050565b600060208201905081810360008301526148798161483d565b9050919050565b6000819050919050565b6000819050919050565b60006148af6148aa6148a584614880565b61488a565b613e2d565b9050919050565b6148bf81614894565b82525050565b60006040820190506148da6000830185613f85565b6148e760208301846148b6565b9392505050565b7f596f7520686176652030206e66747320746f207472616e736665722e00000000600082015250565b6000614924601c83613d7d565b915061492f826148ee565b602082019050919050565b6000602082019050818103600083015261495381614917565b9050919050565b600061496582613e2d565b915060008214156149795761497861461f565b5b600182039050919050565b7f546869732069736e7420746865206f7261636c652077616c6c65742e00000000600082015250565b60006149ba601c83613d7d565b91506149c582614984565b602082019050919050565b600060208201905081810360008301526149e9816149ad565b9050919050565b6000604082019050614a056000830185613f85565b614a126020830184613f85565b9392505050565b600081905092915050565b6000614a2f82613d72565b614a398185614a19565b9350614a49818560208601613d8e565b80840191505092915050565b6000614a618285614a24565b9150614a6d8284614a24565b91508190509392505050565b6000604082019050614a8e6000830185613ec2565b614a9b6020830184613ec2565b9392505050565b600081519050614ab181613e37565b92915050565b600060208284031215614acd57614acc613cad565b5b6000614adb84828501614aa2565b91505092915050565b7f4e6f7420656e6f7567687420636f696e73206f7220616c6c6f77616e63652e00600082015250565b6000614b1a601f83613d7d565b9150614b2582614ae4565b602082019050919050565b60006020820190508181036000830152614b4981614b0d565b9050919050565b7f42616c616e6365206e6f7420656e6f756768742e000000000000000000000000600082015250565b6000614b86601483613d7d565b9150614b9182614b50565b602082019050919050565b60006020820190508181036000830152614bb581614b79565b9050919050565b6000614bc782613e2d565b9150614bd283613e2d565b9250817fffffffffffffffffffffffffffffffffffffffffffffffffffffffffffffffff0483118215151615614c0b57614c0a61461f565b5b828202905092915050565b6000606082019050614c2b6000830186613ec2565b614c386020830185613ec2565b614c456040830184613f85565b949350505050565b600081519050614c5c81614122565b92915050565b600060208284031215614c7857614c77613cad565b5b6000614c8684828501614c4d565b91505092915050565b7f5472616e73666572204661696c65642e00000000000000000000000000000000600082015250565b6000614cc5601083613d7d565b9150614cd082614c8f565b602082019050919050565b60006020820190508181036000830152614cf481614cb8565b9050919050565b7f4f776e61626c653a206e6577206f776e657220697320746865207a65726f206160008201527f6464726573730000000000000000000000000000000000000000000000000000602082015250565b6000614d57602683613d7d565b9150614d6282614cfb565b604082019050919050565b60006020820190508181036000830152614d8681614d4a565b9050919050565b7f6e6f74207468652076656e646f72000000000000000000000000000000000000600082015250565b6000614dc3600e83613d7d565b9150614dce82614d8d565b602082019050919050565b60006020820190508181036000830152614df281614db6565b9050919050565b6000614e0482613e2d565b9150614e0f83613e2d565b925082821015614e2257614e2161461f565b5b828203905092915050565b7f4552433732313a207472616e736665722066726f6d20696e636f72726563742060008201527f6f776e6572000000000000000000000000000000000000000000000000000000602082015250565b6000614e89602583613d7d565b9150614e9482614e2d565b604082019050919050565b60006020820190508181036000830152614eb881614e7c565b9050919050565b7f4552433732313a207472616e7366657220746f20746865207a65726f2061646460008201527f7265737300000000000000000000000000000000000000000000000000000000602082015250565b6000614f1b602483613d7d565b9150614f2682614ebf565b604082019050919050565b60006020820190508181036000830152614f4a81614f0e565b9050919050565b7f4f776e61626c653a2063616c6c6572206973206e6f7420746865206f776e6572600082015250565b6000614f87602083613d7d565b9150614f9282614f51565b602082019050919050565b60006020820190508181036000830152614fb681614f7a565b9050919050565b7f6e6f7420746f6461790000000000000000000000000000000000000000000000600082015250565b6000614ff3600983613d7d565b9150614ffe82614fbd565b602082019050919050565b6000602082019050818103600083015261502281614fe6565b9050919050565b7f4552433732313a20617070726f766520746f2063616c6c657200000000000000600082015250565b600061505f601983613d7d565b915061506a82615029565b602082019050919050565b6000602082019050818103600083015261508e81615052565b9050919050565b7f4552433732313a207472616e7366657220746f206e6f6e20455243373231526560008201527f63656976657220696d706c656d656e7465720000000000000000000000000000602082015250565b60006150f1603283613d7d565b91506150fc82615095565b604082019050919050565b60006020820190508181036000830152615120816150e4565b9050919050565b7f4e487b7100000000000000000000000000000000000000000000000000000000600052601260045260246000fd5b600061516182613e2d565b915061516c83613e2d565b92508261517c5761517b615127565b5b828204905092915050565b600061519282613e2d565b915061519d83613e2d565b9250826151ad576151ac615127565b5b828206905092915050565b7f4552433732313a206d696e7420746f20746865207a65726f2061646472657373600082015250565b60006151ee602083613d7d565b91506151f9826151b8565b602082019050919050565b6000602082019050818103600083015261521d816151e1565b9050919050565b7f4552433732313a20746f6b656e20616c7265616479206d696e74656400000000600082015250565b600061525a601c83613d7d565b915061526582615224565b602082019050919050565b600060208201905081810360008301526152898161524d565b9050919050565b60008151905061529f81613ce3565b92915050565b6000602082840312156152bb576152ba613cad565b5b60006152c984828501615290565b91505092915050565b600081519050919050565b600082825260208201905092915050565b60006152f9826152d2565b61530381856152dd565b9350615313818560208601613d8e565b61531c81613dc1565b840191505092915050565b600060808201905061533c6000830187613ec2565b6153496020830186613ec2565b6153566040830185613f85565b818103606083015261536881846152ee565b90509594505050505056fea2646970667358221220064212282609d61f2451a77a76d14c5bbd9369536e8b9b0bb08f07dafd7d927a64736f6c63430008090033",
  "linkReferences": {},
  "deployedLinkReferences": {}
}