{
  "_format": "hh-sol-artifact-1",
  "contractName": "CarMint",
  "sourceName": "contracts/carContract.sol",
  "abi": [
    {
      "inputs": [
        {
          "internalType": "string",
          "name": "_name",
          "type": "string"
        },
        {
          "internalType": "string",
          "name": "_symbol",
          "type": "string"
        }
      ],
      "stateMutability": "nonpayable",
      "type": "constructor"
    },
    {
      "anonymous": false,
      "inputs": [
        {
          "indexed": true,
          "internalType": "address",
          "name": "owner",
          "type": "address"
        },
        {
          "indexed": true,
          "internalType": "address",
          "name": "approved",
          "type": "address"
        },
        {
          "indexed": true,
          "internalType": "uint256",
          "name": "tokenId",
          "type": "uint256"
        }
      ],
      "name": "Approval",
      "type": "event"
    },
    {
      "anonymous": false,
      "inputs": [
        {
          "indexed": true,
          "internalType": "address",
          "name": "owner",
          "type": "address"
        },
        {
          "indexed": true,
          "internalType": "address",
          "name": "operator",
          "type": "address"
        },
        {
          "indexed": false,
          "internalType": "bool",
          "name": "approved",
          "type": "bool"
        }
      ],
      "name": "ApprovalForAll",
      "type": "event"
    },
    {
      "anonymous": false,
      "inputs": [
        {
          "indexed": true,
          "internalType": "address",
          "name": "previousOwner",
          "type": "address"
        },
        {
          "indexed": true,
          "internalType": "address",
          "name": "newOwner",
          "type": "address"
        }
      ],
      "name": "OwnershipTransferred",
      "type": "event"
    },
    {
      "anonymous": false,
      "inputs": [
        {
          "indexed": true,
          "internalType": "address",
          "name": "from",
          "type": "address"
        },
        {
          "indexed": true,
          "internalType": "address",
          "name": "to",
          "type": "address"
        },
        {
          "indexed": true,
          "internalType": "uint256",
          "name": "tokenId",
          "type": "uint256"
        }
      ],
      "name": "Transfer",
      "type": "event"
    },
    {
      "anonymous": false,
      "inputs": [
        {
          "indexed": false,
          "internalType": "uint256",
          "name": "id",
          "type": "uint256"
        },
        {
          "indexed": false,
          "internalType": "uint256",
          "name": "randNum",
          "type": "uint256"
        }
      ],
      "name": "minted",
      "type": "event"
    },
    {
      "anonymous": false,
      "inputs": [
        {
          "indexed": false,
          "internalType": "address",
          "name": "user",
          "type": "address"
        }
      ],
      "name": "payedFee",
      "type": "event"
    },
    {
      "inputs": [
        {
          "internalType": "address",
          "name": "_add",
          "type": "address"
        },
        {
          "internalType": "uint256",
          "name": "_rand",
          "type": "uint256"
        }
      ],
      "name": "_minting",
      "outputs": [],
      "stateMutability": "nonpayable",
      "type": "function"
    },
    {
      "inputs": [
        {
          "internalType": "address",
          "name": "to",
          "type": "address"
        },
        {
          "internalType": "uint256",
          "name": "tokenId",
          "type": "uint256"
        }
      ],
      "name": "approve",
      "outputs": [],
      "stateMutability": "nonpayable",
      "type": "function"
    },
    {
      "inputs": [
        {
          "internalType": "address",
          "name": "owner",
          "type": "address"
        }
      ],
      "name": "balanceOf",
      "outputs": [
        {
          "internalType": "uint256",
          "name": "",
          "type": "uint256"
        }
      ],
      "stateMutability": "view",
      "type": "function"
    },
    {
      "inputs": [],
      "name": "brainPrice",
      "outputs": [
        {
          "internalType": "uint256",
          "name": "",
          "type": "uint256"
        }
      ],
      "stateMutability": "view",
      "type": "function"
    },
    {
      "inputs": [],
      "name": "brainTest",
      "outputs": [
        {
          "internalType": "uint256",
          "name": "",
          "type": "uint256"
        }
      ],
      "stateMutability": "view",
      "type": "function"
    },
    {
      "inputs": [
        {
          "internalType": "uint256",
          "name": "",
          "type": "uint256"
        }
      ],
      "name": "cars",
      "outputs": [
        {
          "internalType": "uint256",
          "name": "rairty",
          "type": "uint256"
        },
        {
          "internalType": "uint256",
          "name": "cap",
          "type": "uint256"
        },
        {
          "internalType": "uint256",
          "name": "counter",
          "type": "uint256"
        },
        {
          "internalType": "bool",
          "name": "inCrew",
          "type": "bool"
        }
      ],
      "stateMutability": "view",
      "type": "function"
    },
    {
      "inputs": [
        {
          "internalType": "uint256",
          "name": "tokenId",
          "type": "uint256"
        }
      ],
      "name": "getApproved",
      "outputs": [
        {
          "internalType": "address",
          "name": "",
          "type": "address"
        }
      ],
      "stateMutability": "view",
      "type": "function"
    },
    {
      "inputs": [],
      "name": "getCap",
      "outputs": [
        {
          "internalType": "uint256[]",
          "name": "",
          "type": "uint256[]"
        }
      ],
      "stateMutability": "view",
      "type": "function"
    },
    {
      "inputs": [
        {
          "internalType": "uint256",
          "name": "_id",
          "type": "uint256"
        }
      ],
      "name": "getCapOfCarById",
      "outputs": [
        {
          "internalType": "uint256",
          "name": "",
          "type": "uint256"
        }
      ],
      "stateMutability": "view",
      "type": "function"
    },
    {
      "inputs": [
        {
          "internalType": "uint256",
          "name": "_id",
          "type": "uint256"
        }
      ],
      "name": "getCrewStatus",
      "outputs": [
        {
          "internalType": "bool",
          "name": "",
          "type": "bool"
        }
      ],
      "stateMutability": "view",
      "type": "function"
    },
    {
      "inputs": [],
      "name": "getIds",
      "outputs": [
        {
          "internalType": "uint256[]",
          "name": "",
          "type": "uint256[]"
        }
      ],
      "stateMutability": "view",
      "type": "function"
    },
    {
      "inputs": [],
      "name": "getRar",
      "outputs": [
        {
          "internalType": "uint256[]",
          "name": "",
          "type": "uint256[]"
        }
      ],
      "stateMutability": "view",
      "type": "function"
    },
    {
      "inputs": [
        {
          "internalType": "address",
          "name": "",
          "type": "address"
        }
      ],
      "name": "howMany",
      "outputs": [
        {
          "internalType": "uint256",
          "name": "",
          "type": "uint256"
        }
      ],
      "stateMutability": "view",
      "type": "function"
    },
    {
      "inputs": [
        {
          "internalType": "uint256",
          "name": "",
          "type": "uint256"
        }
      ],
      "name": "idOwner",
      "outputs": [
        {
          "internalType": "address",
          "name": "",
          "type": "address"
        }
      ],
      "stateMutability": "view",
      "type": "function"
    },
    {
      "inputs": [
        {
          "internalType": "address",
          "name": "owner",
          "type": "address"
        },
        {
          "internalType": "address",
          "name": "operator",
          "type": "address"
        }
      ],
      "name": "isApprovedForAll",
      "outputs": [
        {
          "internalType": "bool",
          "name": "",
          "type": "bool"
        }
      ],
      "stateMutability": "view",
      "type": "function"
    },
    {
      "inputs": [],
      "name": "mintFree",
      "outputs": [],
      "stateMutability": "nonpayable",
      "type": "function"
    },
    {
      "inputs": [
        {
          "internalType": "address",
          "name": "",
          "type": "address"
        }
      ],
      "name": "mintStatus",
      "outputs": [
        {
          "internalType": "bool",
          "name": "",
          "type": "bool"
        }
      ],
      "stateMutability": "view",
      "type": "function"
    },
    {
      "inputs": [],
      "name": "name",
      "outputs": [
        {
          "internalType": "string",
          "name": "",
          "type": "string"
        }
      ],
      "stateMutability": "view",
      "type": "function"
    },
    {
      "inputs": [],
      "name": "owner",
      "outputs": [
        {
          "internalType": "address",
          "name": "",
          "type": "address"
        }
      ],
      "stateMutability": "view",
      "type": "function"
    },
    {
      "inputs": [
        {
          "internalType": "uint256",
          "name": "tokenId",
          "type": "uint256"
        }
      ],
      "name": "ownerOf",
      "outputs": [
        {
          "internalType": "address",
          "name": "",
          "type": "address"
        }
      ],
      "stateMutability": "view",
      "type": "function"
    },
    {
      "inputs": [
        {
          "internalType": "uint256",
          "name": "_id",
          "type": "uint256"
        },
        {
          "internalType": "address",
          "name": "_add",
          "type": "address"
        }
      ],
      "name": "ownerOfId",
      "outputs": [
        {
          "internalType": "bool",
          "name": "",
          "type": "bool"
        }
      ],
      "stateMutability": "view",
      "type": "function"
    },
    {
      "inputs": [],
      "name": "payWithBr",
      "outputs": [],
      "stateMutability": "payable",
      "type": "function"
    },
    {
      "inputs": [],
      "name": "renounceOwnership",
      "outputs": [],
      "stateMutability": "nonpayable",
      "type": "function"
    },
    {
      "inputs": [
        {
          "internalType": "address",
          "name": "from",
          "type": "address"
        },
        {
          "internalType": "address",
          "name": "to",
          "type": "address"
        },
        {
          "internalType": "uint256",
          "name": "tokenId",
          "type": "uint256"
        }
      ],
      "name": "safeTransferFrom",
      "outputs": [],
      "stateMutability": "nonpayable",
      "type": "function"
    },
    {
      "inputs": [
        {
          "internalType": "address",
          "name": "from",
          "type": "address"
        },
        {
          "internalType": "address",
          "name": "to",
          "type": "address"
        },
        {
          "internalType": "uint256",
          "name": "tokenId",
          "type": "uint256"
        },
        {
          "internalType": "bytes",
          "name": "data",
          "type": "bytes"
        }
      ],
      "name": "safeTransferFrom",
      "outputs": [],
      "stateMutability": "nonpayable",
      "type": "function"
    },
    {
      "inputs": [
        {
          "internalType": "address",
          "name": "operator",
          "type": "address"
        },
        {
          "internalType": "bool",
          "name": "approved",
          "type": "bool"
        }
      ],
      "name": "setApprovalForAll",
      "outputs": [],
      "stateMutability": "nonpayable",
      "type": "function"
    },
    {
      "inputs": [
        {
          "internalType": "uint256",
          "name": "_id",
          "type": "uint256"
        }
      ],
      "name": "setCarCrew",
      "outputs": [],
      "stateMutability": "nonpayable",
      "type": "function"
    },
    {
      "inputs": [
        {
          "internalType": "address",
          "name": "_add",
          "type": "address"
        }
      ],
      "name": "setCombine2",
      "outputs": [],
      "stateMutability": "nonpayable",
      "type": "function"
    },
    {
      "inputs": [
        {
          "internalType": "address",
          "name": "_add",
          "type": "address"
        }
      ],
      "name": "setMarketplace",
      "outputs": [],
      "stateMutability": "nonpayable",
      "type": "function"
    },
    {
      "inputs": [
        {
          "internalType": "address",
          "name": "_add",
          "type": "address"
        }
      ],
      "name": "setOracleAddress",
      "outputs": [],
      "stateMutability": "nonpayable",
      "type": "function"
    },
    {
      "inputs": [
        {
          "internalType": "address",
          "name": "_add",
          "type": "address"
        }
      ],
      "name": "setPacoCoin",
      "outputs": [],
      "stateMutability": "nonpayable",
      "type": "function"
    },
    {
      "inputs": [
        {
          "internalType": "bytes4",
          "name": "interfaceId",
          "type": "bytes4"
        }
      ],
      "name": "supportsInterface",
      "outputs": [
        {
          "internalType": "bool",
          "name": "",
          "type": "bool"
        }
      ],
      "stateMutability": "view",
      "type": "function"
    },
    {
      "inputs": [],
      "name": "symbol",
      "outputs": [
        {
          "internalType": "string",
          "name": "",
          "type": "string"
        }
      ],
      "stateMutability": "view",
      "type": "function"
    },
    {
      "inputs": [
        {
          "internalType": "uint256",
          "name": "tokenId",
          "type": "uint256"
        }
      ],
      "name": "tokenURI",
      "outputs": [
        {
          "internalType": "string",
          "name": "",
          "type": "string"
        }
      ],
      "stateMutability": "view",
      "type": "function"
    },
    {
      "inputs": [
        {
          "internalType": "address",
          "name": "from",
          "type": "address"
        },
        {
          "internalType": "address",
          "name": "to",
          "type": "address"
        },
        {
          "internalType": "uint256",
          "name": "tokenId",
          "type": "uint256"
        }
      ],
      "name": "transferFrom",
      "outputs": [],
      "stateMutability": "nonpayable",
      "type": "function"
    },
    {
      "inputs": [
        {
          "internalType": "address",
          "name": "_from",
          "type": "address"
        },
        {
          "internalType": "address",
          "name": "_to",
          "type": "address"
        },
        {
          "internalType": "uint256",
          "name": "_id",
          "type": "uint256"
        }
      ],
      "name": "transferNfts",
      "outputs": [],
      "stateMutability": "nonpayable",
      "type": "function"
    },
    {
      "inputs": [
        {
          "internalType": "address",
          "name": "newOwner",
          "type": "address"
        }
      ],
      "name": "transferOwnership",
      "outputs": [],
      "stateMutability": "nonpayable",
      "type": "function"
    }
  ],
  "bytecode": "0x608060405260006011556101906013553480156200001c57600080fd5b5060405162004ceb38038062004ceb8339818101604052810190620000429190620003b9565b81816200006462000058620000a060201b60201c565b620000a860201b60201c565b81600190805190602001906200007c9291906200016c565b508060029080519060200190620000959291906200016c565b5050505050620004a3565b600033905090565b60008060009054906101000a900473ffffffffffffffffffffffffffffffffffffffff169050816000806101000a81548173ffffffffffffffffffffffffffffffffffffffff021916908373ffffffffffffffffffffffffffffffffffffffff1602179055508173ffffffffffffffffffffffffffffffffffffffff168173ffffffffffffffffffffffffffffffffffffffff167f8be0079c531659141344cd1fd0a4f28419497f9722a3daafe3b4186f6b6457e060405160405180910390a35050565b8280546200017a906200046d565b90600052602060002090601f0160209004810192826200019e5760008555620001ea565b82601f10620001b957805160ff1916838001178555620001ea565b82800160010185558215620001ea579182015b82811115620001e9578251825591602001919060010190620001cc565b5b509050620001f99190620001fd565b5090565b5b8082111562000218576000816000905550600101620001fe565b5090565b6000604051905090565b600080fd5b600080fd5b600080fd5b600080fd5b6000601f19601f8301169050919050565b7f4e487b7100000000000000000000000000000000000000000000000000000000600052604160045260246000fd5b62000285826200023a565b810181811067ffffffffffffffff82111715620002a757620002a66200024b565b5b80604052505050565b6000620002bc6200021c565b9050620002ca82826200027a565b919050565b600067ffffffffffffffff821115620002ed57620002ec6200024b565b5b620002f8826200023a565b9050602081019050919050565b60005b838110156200032557808201518184015260208101905062000308565b8381111562000335576000848401525b50505050565b6000620003526200034c84620002cf565b620002b0565b90508281526020810184848401111562000371576200037062000235565b5b6200037e84828562000305565b509392505050565b600082601f8301126200039e576200039d62000230565b5b8151620003b08482602086016200033b565b91505092915050565b60008060408385031215620003d357620003d262000226565b5b600083015167ffffffffffffffff811115620003f457620003f36200022b565b5b620004028582860162000386565b925050602083015167ffffffffffffffff8111156200042657620004256200022b565b5b620004348582860162000386565b9150509250929050565b7f4e487b7100000000000000000000000000000000000000000000000000000000600052602260045260246000fd5b600060028204905060018216806200048657607f821691505b602082108114156200049d576200049c6200043e565b5b50919050565b61483880620004b36000396000f3fe60806040526004361061021a5760003560e01c80636fcf003011610123578063a0f2a366116100ab578063d7e2d1041161006f578063d7e2d10414610807578063e7e9185314610811578063e985e9c51461083a578063f2fde38b14610877578063f7746e36146108a05761021a565b8063a0f2a36614610712578063a22cb4651461073b578063b88d4fde14610764578063bf3fd6ce1461078d578063c87b56dd146107ca5761021a565b806374945b73116100f257806374945b731461063f5780638ab534471461067c5780638c44c925146106935780638da5cb5b146106bc57806395d89b41146106e75761021a565b80636fcf00301461058557806370a08231146105c2578063715018a6146105ff57806373ad6c2d146106165761021a565b80633456ca6e116101a65780634c69c00f116101755780634c69c00f1461048c578063554d578d146104b5578063602977ad146104e05780636352211e1461051d5780636c70a9811461055a5761021a565b80633456ca6e146103e657806342842e0e14610411578063458aa7fb1461043a5780634b355cfa146104635761021a565b80630d26634a116101ed5780630d26634a146102ed5780630deab8101461032a57806323b872dd146103675780632b1056631461039057806330e9a68e146103bb5761021a565b806301ffc9a71461021f57806306fdde031461025c578063081812fc14610287578063095ea7b3146102c4575b600080fd5b34801561022b57600080fd5b5061024660048036038101906102419190613241565b6108e0565b6040516102539190613289565b60405180910390f35b34801561026857600080fd5b506102716109c2565b60405161027e919061333d565b60405180910390f35b34801561029357600080fd5b506102ae60048036038101906102a99190613395565b610a54565b6040516102bb9190613403565b60405180910390f35b3480156102d057600080fd5b506102eb60048036038101906102e6919061344a565b610a9a565b005b3480156102f957600080fd5b50610314600480360381019061030f9190613395565b610bb2565b6040516103219190613289565b60405180910390f35b34801561033657600080fd5b50610351600480360381019061034c919061348a565b610bee565b60405161035e9190613289565b60405180910390f35b34801561037357600080fd5b5061038e600480360381019061038991906134b7565b610c0e565b005b34801561039c57600080fd5b506103a5610c6e565b6040516103b291906135c8565b60405180910390f35b3480156103c757600080fd5b506103d0610dbf565b6040516103dd91906135f9565b60405180910390f35b3480156103f257600080fd5b506103fb610dc5565b60405161040891906135f9565b60405180910390f35b34801561041d57600080fd5b50610438600480360381019061043391906134b7565b610dcb565b005b34801561044657600080fd5b50610461600480360381019061045c919061348a565b610deb565b005b34801561046f57600080fd5b5061048a6004803603810190610485919061348a565b610e78565b005b34801561049857600080fd5b506104b360048036038101906104ae919061348a565b610f05565b005b3480156104c157600080fd5b506104ca610f51565b6040516104d791906135c8565b60405180910390f35b3480156104ec57600080fd5b506105076004803603810190610502919061348a565b6110c7565b60405161051491906135f9565b60405180910390f35b34801561052957600080fd5b50610544600480360381019061053f9190613395565b6110df565b6040516105519190613403565b60405180910390f35b34801561056657600080fd5b5061056f611191565b60405161057c91906135c8565b60405180910390f35b34801561059157600080fd5b506105ac60048036038101906105a79190613395565b611307565b6040516105b991906135f9565b60405180910390f35b3480156105ce57600080fd5b506105e960048036038101906105e4919061348a565b61133b565b6040516105f691906135f9565b60405180910390f35b34801561060b57600080fd5b506106146113f3565b005b34801561062257600080fd5b5061063d6004803603810190610638919061348a565b611407565b005b34801561064b57600080fd5b5061066660048036038101906106619190613614565b611494565b6040516106739190613289565b60405180910390f35b34801561068857600080fd5b50610691611500565b005b34801561069f57600080fd5b506106ba60048036038101906106b591906134b7565b6116a3565b005b3480156106c857600080fd5b506106d16118d7565b6040516106de9190613403565b60405180910390f35b3480156106f357600080fd5b506106fc611900565b604051610709919061333d565b60405180910390f35b34801561071e57600080fd5b506107396004803603810190610734919061344a565b611992565b005b34801561074757600080fd5b50610762600480360381019061075d9190613680565b611c00565b005b34801561077057600080fd5b5061078b600480360381019061078691906137f5565b611c16565b005b34801561079957600080fd5b506107b460048036038101906107af9190613395565b611c78565b6040516107c19190613403565b60405180910390f35b3480156107d657600080fd5b506107f160048036038101906107ec9190613395565b611cab565b6040516107fe919061333d565b60405180910390f35b61080f611d13565b005b34801561081d57600080fd5b5061083860048036038101906108339190613395565b612037565b005b34801561084657600080fd5b50610861600480360381019061085c9190613878565b61213a565b60405161086e9190613289565b60405180910390f35b34801561088357600080fd5b5061089e6004803603810190610899919061348a565b6121ce565b005b3480156108ac57600080fd5b506108c760048036038101906108c29190613395565b612252565b6040516108d794939291906138b8565b60405180910390f35b60007f80ac58cd000000000000000000000000000000000000000000000000000000007bffffffffffffffffffffffffffffffffffffffffffffffffffffffff1916827bffffffffffffffffffffffffffffffffffffffffffffffffffffffff191614806109ab57507f5b5e139f000000000000000000000000000000000000000000000000000000007bffffffffffffffffffffffffffffffffffffffffffffffffffffffff1916827bffffffffffffffffffffffffffffffffffffffffffffffffffffffff1916145b806109bb57506109ba8261229f565b5b9050919050565b6060600180546109d19061392c565b80601f01602080910402602001604051908101604052809291908181526020018280546109fd9061392c565b8015610a4a5780601f10610a1f57610100808354040283529160200191610a4a565b820191906000526020600020905b815481529060010190602001808311610a2d57829003601f168201915b5050505050905090565b6000610a5f82612309565b6005600083815260200190815260200160002060009054906101000a900473ffffffffffffffffffffffffffffffffffffffff169050919050565b6000610aa5826110df565b90508073ffffffffffffffffffffffffffffffffffffffff168373ffffffffffffffffffffffffffffffffffffffff161415610b16576040517f08c379a0000000000000000000000000000000000000000000000000000000008152600401610b0d906139d0565b60405180910390fd5b8073ffffffffffffffffffffffffffffffffffffffff16610b35612354565b73ffffffffffffffffffffffffffffffffffffffff161480610b645750610b6381610b5e612354565b61213a565b5b610ba3576040517f08c379a0000000000000000000000000000000000000000000000000000000008152600401610b9a90613a62565b60405180910390fd5b610bad838361235c565b505050565b6000600d8281548110610bc857610bc7613a82565b5b906000526020600020906004020160030160009054906101000a900460ff169050919050565b60106020528060005260406000206000915054906101000a900460ff1681565b610c1f610c19612354565b82612415565b610c5e576040517f08c379a0000000000000000000000000000000000000000000000000000000008152600401610c5590613b23565b60405180910390fd5b610c698383836124aa565b505050565b6060600080600f60003373ffffffffffffffffffffffffffffffffffffffff1673ffffffffffffffffffffffffffffffffffffffff1681526020019081526020016000205467ffffffffffffffff811115610ccc57610ccb6136ca565b5b604051908082528060200260200182016040528015610cfa5781602001602082028036833780820191505090505b50905060005b600d80549050811015610db6573373ffffffffffffffffffffffffffffffffffffffff16600e600083815260200190815260200160002060009054906101000a900473ffffffffffffffffffffffffffffffffffffffff1673ffffffffffffffffffffffffffffffffffffffff161415610da35780828481518110610d8857610d87613a82565b5b6020026020010181815250508280610d9f90613b72565b9350505b8080610dae90613b72565b915050610d00565b50809250505090565b60125481565b60135481565b610de683838360405180602001604052806000815250611c16565b505050565b610df3612711565b80600960006101000a81548173ffffffffffffffffffffffffffffffffffffffff021916908373ffffffffffffffffffffffffffffffffffffffff16021790555080600a60006101000a81548173ffffffffffffffffffffffffffffffffffffffff021916908373ffffffffffffffffffffffffffffffffffffffff16021790555050565b610e80612711565b80600b60006101000a81548173ffffffffffffffffffffffffffffffffffffffff021916908373ffffffffffffffffffffffffffffffffffffffff16021790555080600c60006101000a81548173ffffffffffffffffffffffffffffffffffffffff021916908373ffffffffffffffffffffffffffffffffffffffff16021790555050565b610f0d612711565b80601460006101000a81548173ffffffffffffffffffffffffffffffffffffffff021916908373ffffffffffffffffffffffffffffffffffffffff16021790555050565b6060600080600f60003373ffffffffffffffffffffffffffffffffffffffff1673ffffffffffffffffffffffffffffffffffffffff1681526020019081526020016000205467ffffffffffffffff811115610faf57610fae6136ca565b5b604051908082528060200260200182016040528015610fdd5781602001602082028036833780820191505090505b50905060005b600d805490508110156110be573373ffffffffffffffffffffffffffffffffffffffff16600e600083815260200190815260200160002060009054906101000a900473ffffffffffffffffffffffffffffffffffffffff1673ffffffffffffffffffffffffffffffffffffffff1614156110ab57600d818154811061106b5761106a613a82565b5b9060005260206000209060040201600101548284815181106110905761108f613a82565b5b60200260200101818152505082806110a790613b72565b9350505b80806110b690613b72565b915050610fe3565b50809250505090565b600f6020528060005260406000206000915090505481565b6000806003600084815260200190815260200160002060009054906101000a900473ffffffffffffffffffffffffffffffffffffffff169050600073ffffffffffffffffffffffffffffffffffffffff168173ffffffffffffffffffffffffffffffffffffffff161415611188576040517f08c379a000000000000000000000000000000000000000000000000000000000815260040161117f90613c07565b60405180910390fd5b80915050919050565b6060600080600f60003373ffffffffffffffffffffffffffffffffffffffff1673ffffffffffffffffffffffffffffffffffffffff1681526020019081526020016000205467ffffffffffffffff8111156111ef576111ee6136ca565b5b60405190808252806020026020018201604052801561121d5781602001602082028036833780820191505090505b50905060005b600d805490508110156112fe573373ffffffffffffffffffffffffffffffffffffffff16600e600083815260200190815260200160002060009054906101000a900473ffffffffffffffffffffffffffffffffffffffff1673ffffffffffffffffffffffffffffffffffffffff1614156112eb57600d81815481106112ab576112aa613a82565b5b9060005260206000209060040201600001548284815181106112d0576112cf613a82565b5b60200260200101818152505082806112e790613b72565b9350505b80806112f690613b72565b915050611223565b50809250505090565b600080600d838154811061131e5761131d613a82565b5b906000526020600020906004020160010154905080915050919050565b60008073ffffffffffffffffffffffffffffffffffffffff168273ffffffffffffffffffffffffffffffffffffffff1614156113ac576040517f08c379a00000000000000000000000000000000000000000000000000000000081526004016113a390613c99565b60405180910390fd5b600460008373ffffffffffffffffffffffffffffffffffffffff1673ffffffffffffffffffffffffffffffffffffffff168152602001908152602001600020549050919050565b6113fb612711565b611405600061278f565b565b61140f612711565b80600760006101000a81548173ffffffffffffffffffffffffffffffffffffffff021916908373ffffffffffffffffffffffffffffffffffffffff16021790555080600860006101000a81548173ffffffffffffffffffffffffffffffffffffffff021916908373ffffffffffffffffffffffffffffffffffffffff16021790555050565b60008173ffffffffffffffffffffffffffffffffffffffff16600e600085815260200190815260200160002060009054906101000a900473ffffffffffffffffffffffffffffffffffffffff1673ffffffffffffffffffffffffffffffffffffffff1614905092915050565b60006040518060800160405280600181526020016002815260200160018152602001600015158152509050600d81908060018154018082558091505060019003906000526020600020906004020160009091909190915060008201518160000155602082015181600101556040820151816002015560608201518160030160006101000a81548160ff02191690831515021790555050506115a333601154612853565b33600e6000601154815260200190815260200160002060006101000a81548173ffffffffffffffffffffffffffffffffffffffff021916908373ffffffffffffffffffffffffffffffffffffffff160217905550600f60003373ffffffffffffffffffffffffffffffffffffffff1673ffffffffffffffffffffffffffffffffffffffff168152602001908152602001600020600081548092919061164790613b72565b91905055507fdbe82851b2d09154f664d67cc6e17ef02f33aeacacff618708655761a1ec71b56011546001604051611680929190613cfe565b60405180910390a16011600081548092919061169b90613b72565b919050555050565b600860009054906101000a900473ffffffffffffffffffffffffffffffffffffffff1673ffffffffffffffffffffffffffffffffffffffff163373ffffffffffffffffffffffffffffffffffffffff16146116fd57600080fd5b6000600f60008573ffffffffffffffffffffffffffffffffffffffff1673ffffffffffffffffffffffffffffffffffffffff168152602001908152602001600020541161177f576040517f08c379a000000000000000000000000000000000000000000000000000000000815260040161177690613d73565b60405180910390fd5b8273ffffffffffffffffffffffffffffffffffffffff16600e600083815260200190815260200160002060009054906101000a900473ffffffffffffffffffffffffffffffffffffffff1673ffffffffffffffffffffffffffffffffffffffff1614611820576040517f08c379a000000000000000000000000000000000000000000000000000000000815260040161181790613ddf565b60405180910390fd5b61182b838383610dcb565b81600e600083815260200190815260200160002060006101000a81548173ffffffffffffffffffffffffffffffffffffffff021916908373ffffffffffffffffffffffffffffffffffffffff160217905550600f60008473ffffffffffffffffffffffffffffffffffffffff1673ffffffffffffffffffffffffffffffffffffffff16815260200190815260200160002060008154809291906118cd90613dff565b9190505550505050565b60008060009054906101000a900473ffffffffffffffffffffffffffffffffffffffff16905090565b60606002805461190f9061392c565b80601f016020809104026020016040519081016040528092919081815260200182805461193b9061392c565b80156119885780601f1061195d57610100808354040283529160200191611988565b820191906000526020600020905b81548152906001019060200180831161196b57829003601f168201915b5050505050905090565b601460009054906101000a900473ffffffffffffffffffffffffffffffffffffffff1673ffffffffffffffffffffffffffffffffffffffff163373ffffffffffffffffffffffffffffffffffffffff16146119ec57600080fd5b6000601060008473ffffffffffffffffffffffffffffffffffffffff1673ffffffffffffffffffffffffffffffffffffffff16815260200190815260200160002060006101000a81548160ff0219169083151502179055506000611a4f826128ac565b905060006040518060800160405280838152602001600184611a719190613e29565b815260200160018152602001600015158152509050600d81908060018154018082558091505060019003906000526020600020906004020160009091909190915060008201518160000155602082015181600101556040820151816002015560608201518160030160006101000a81548160ff0219169083151502179055505050611afe84601154612853565b83600e6000601154815260200190815260200160002060006101000a81548173ffffffffffffffffffffffffffffffffffffffff021916908373ffffffffffffffffffffffffffffffffffffffff160217905550600f60008573ffffffffffffffffffffffffffffffffffffffff1673ffffffffffffffffffffffffffffffffffffffff1681526020019081526020016000206000815480929190611ba290613b72565b91905055507fdbe82851b2d09154f664d67cc6e17ef02f33aeacacff618708655761a1ec71b560115483604051611bda929190613e7f565b60405180910390a160116000815480929190611bf590613b72565b919050555050505050565b611c12611c0b612354565b83836128e9565b5050565b611c27611c21612354565b83612415565b611c66576040517f08c379a0000000000000000000000000000000000000000000000000000000008152600401611c5d90613b23565b60405180910390fd5b611c7284848484612a56565b50505050565b600e6020528060005260406000206000915054906101000a900473ffffffffffffffffffffffffffffffffffffffff1681565b6060611cb682612309565b6000611cc0612ab2565b90506000815111611ce05760405180602001604052806000815250611d0b565b80611cea84612ac9565b604051602001611cfb929190613ee4565b6040516020818303038152906040525b915050919050565b601354600b60009054906101000a900473ffffffffffffffffffffffffffffffffffffffff1673ffffffffffffffffffffffffffffffffffffffff1663dd62ed3e33306040518363ffffffff1660e01b8152600401611d73929190613f08565b60206040518083038186803b158015611d8b57600080fd5b505afa158015611d9f573d6000803e3d6000fd5b505050506040513d601f19601f82011682018060405250810190611dc39190613f46565b1015611e04576040517f08c379a0000000000000000000000000000000000000000000000000000000008152600401611dfb90613fbf565b60405180910390fd5b601354600b60009054906101000a900473ffffffffffffffffffffffffffffffffffffffff1673ffffffffffffffffffffffffffffffffffffffff166370a08231336040518263ffffffff1660e01b8152600401611e629190613403565b60206040518083038186803b158015611e7a57600080fd5b505afa158015611e8e573d6000803e3d6000fd5b505050506040513d601f19601f82011682018060405250810190611eb29190613f46565b1015611ef3576040517f08c379a0000000000000000000000000000000000000000000000000000000008152600401611eea9061402b565b60405180910390fd5b6000670de0b6b3a7640000601354611f0b919061404b565b9050600b60009054906101000a900473ffffffffffffffffffffffffffffffffffffffff1673ffffffffffffffffffffffffffffffffffffffff166323b872dd3330846040518463ffffffff1660e01b8152600401611f6c939291906140a5565b602060405180830381600087803b158015611f8657600080fd5b505af1158015611f9a573d6000803e3d6000fd5b505050506040513d601f19601f82011682018060405250810190611fbe91906140f1565b611ffd576040517f08c379a0000000000000000000000000000000000000000000000000000000008152600401611ff49061416a565b60405180910390fd5b7f02d722ac2845ac725ffc246b20b5f066d4f7d54d9148fe2301987828bc72b6c33360405161202c9190613403565b60405180910390a150565b600a60009054906101000a900473ffffffffffffffffffffffffffffffffffffffff1673ffffffffffffffffffffffffffffffffffffffff163373ffffffffffffffffffffffffffffffffffffffff16146120c7576040517f08c379a00000000000000000000000000000000000000000000000000000000081526004016120be906141d6565b60405180910390fd5b600d81815481106120db576120da613a82565b5b906000526020600020906004020160030160009054906101000a900460ff1615600d828154811061210f5761210e613a82565b5b906000526020600020906004020160030160006101000a81548160ff02191690831515021790555050565b6000600660008473ffffffffffffffffffffffffffffffffffffffff1673ffffffffffffffffffffffffffffffffffffffff16815260200190815260200160002060008373ffffffffffffffffffffffffffffffffffffffff1673ffffffffffffffffffffffffffffffffffffffff16815260200190815260200160002060009054906101000a900460ff16905092915050565b6121d6612711565b600073ffffffffffffffffffffffffffffffffffffffff168173ffffffffffffffffffffffffffffffffffffffff161415612246576040517f08c379a000000000000000000000000000000000000000000000000000000000815260040161223d90614268565b60405180910390fd5b61224f8161278f565b50565b600d818154811061226257600080fd5b90600052602060002090600402016000915090508060000154908060010154908060020154908060030160009054906101000a900460ff16905084565b60007f01ffc9a7000000000000000000000000000000000000000000000000000000007bffffffffffffffffffffffffffffffffffffffffffffffffffffffff1916827bffffffffffffffffffffffffffffffffffffffffffffffffffffffff1916149050919050565b61231281612c2a565b612351576040517f08c379a000000000000000000000000000000000000000000000000000000000815260040161234890613c07565b60405180910390fd5b50565b600033905090565b816005600083815260200190815260200160002060006101000a81548173ffffffffffffffffffffffffffffffffffffffff021916908373ffffffffffffffffffffffffffffffffffffffff160217905550808273ffffffffffffffffffffffffffffffffffffffff166123cf836110df565b73ffffffffffffffffffffffffffffffffffffffff167f8c5be1e5ebec7d5bd14f71427d1e84f3dd0314c0f7b2291e5b200ac8c7c3b92560405160405180910390a45050565b600080612421836110df565b90508073ffffffffffffffffffffffffffffffffffffffff168473ffffffffffffffffffffffffffffffffffffffff1614806124635750612462818561213a565b5b806124a157508373ffffffffffffffffffffffffffffffffffffffff1661248984610a54565b73ffffffffffffffffffffffffffffffffffffffff16145b91505092915050565b8273ffffffffffffffffffffffffffffffffffffffff166124ca826110df565b73ffffffffffffffffffffffffffffffffffffffff1614612520576040517f08c379a0000000000000000000000000000000000000000000000000000000008152600401612517906142fa565b60405180910390fd5b600073ffffffffffffffffffffffffffffffffffffffff168273ffffffffffffffffffffffffffffffffffffffff161415612590576040517f08c379a00000000000000000000000000000000000000000000000000000000081526004016125879061438c565b60405180910390fd5b61259b838383612c96565b6125a660008261235c565b6001600460008573ffffffffffffffffffffffffffffffffffffffff1673ffffffffffffffffffffffffffffffffffffffff16815260200190815260200160002060008282546125f691906143ac565b925050819055506001600460008473ffffffffffffffffffffffffffffffffffffffff1673ffffffffffffffffffffffffffffffffffffffff168152602001908152602001600020600082825461264d9190613e29565b92505081905550816003600083815260200190815260200160002060006101000a81548173ffffffffffffffffffffffffffffffffffffffff021916908373ffffffffffffffffffffffffffffffffffffffff160217905550808273ffffffffffffffffffffffffffffffffffffffff168473ffffffffffffffffffffffffffffffffffffffff167fddf252ad1be2c89b69c2b068fc378daa952ba7f163c4a11628f55a4df523b3ef60405160405180910390a461270c838383612c9b565b505050565b612719612354565b73ffffffffffffffffffffffffffffffffffffffff166127376118d7565b73ffffffffffffffffffffffffffffffffffffffff161461278d576040517f08c379a00000000000000000000000000000000000000000000000000000000081526004016127849061442c565b60405180910390fd5b565b60008060009054906101000a900473ffffffffffffffffffffffffffffffffffffffff169050816000806101000a81548173ffffffffffffffffffffffffffffffffffffffff021916908373ffffffffffffffffffffffffffffffffffffffff1602179055508173ffffffffffffffffffffffffffffffffffffffff168173ffffffffffffffffffffffffffffffffffffffff167f8be0079c531659141344cd1fd0a4f28419497f9722a3daafe3b4186f6b6457e060405160405180910390a35050565b61285d8282612ca0565b61286960008383612e7a565b6128a8576040517f08c379a000000000000000000000000000000000000000000000000000000000815260040161289f90614498565b60405180910390fd5b5050565b600080604b83116128c057600190506128e0565b605f83116128d157600290506128df565b605f83106128de57600390505b5b5b80915050919050565b8173ffffffffffffffffffffffffffffffffffffffff168373ffffffffffffffffffffffffffffffffffffffff161415612958576040517f08c379a000000000000000000000000000000000000000000000000000000000815260040161294f90614504565b60405180910390fd5b80600660008573ffffffffffffffffffffffffffffffffffffffff1673ffffffffffffffffffffffffffffffffffffffff16815260200190815260200160002060008473ffffffffffffffffffffffffffffffffffffffff1673ffffffffffffffffffffffffffffffffffffffff16815260200190815260200160002060006101000a81548160ff0219169083151502179055508173ffffffffffffffffffffffffffffffffffffffff168373ffffffffffffffffffffffffffffffffffffffff167f17307eab39ab6107e8899845ad3d59bd9653f200f220920489ca2b5937696c3183604051612a499190613289565b60405180910390a3505050565b612a618484846124aa565b612a6d84848484612ff8565b612aac576040517f08c379a0000000000000000000000000000000000000000000000000000000008152600401612aa390614596565b60405180910390fd5b50505050565b606060405180602001604052806000815250905090565b60606000821415612b11576040518060400160405280600181526020017f30000000000000000000000000000000000000000000000000000000000000008152509050612c25565b600082905060005b60008214612b43578080612b2c90613b72565b915050600a82612b3c91906145e5565b9150612b19565b60008167ffffffffffffffff811115612b5f57612b5e6136ca565b5b6040519080825280601f01601f191660200182016040528015612b915781602001600182028036833780820191505090505b5090505b60008514612c1e57600182612baa91906143ac565b9150600a85612bb99190614616565b6030612bc59190613e29565b60f81b818381518110612bdb57612bda613a82565b5b60200101907effffffffffffffffffffffffffffffffffffffffffffffffffffffffffffff1916908160001a905350600a85612c1791906145e5565b9450612b95565b8093505050505b919050565b60008073ffffffffffffffffffffffffffffffffffffffff166003600084815260200190815260200160002060009054906101000a900473ffffffffffffffffffffffffffffffffffffffff1673ffffffffffffffffffffffffffffffffffffffff1614159050919050565b505050565b505050565b600073ffffffffffffffffffffffffffffffffffffffff168273ffffffffffffffffffffffffffffffffffffffff161415612d10576040517f08c379a0000000000000000000000000000000000000000000000000000000008152600401612d0790614693565b60405180910390fd5b612d1981612c2a565b15612d59576040517f08c379a0000000000000000000000000000000000000000000000000000000008152600401612d50906146ff565b60405180910390fd5b612d6560008383612c96565b6001600460008473ffffffffffffffffffffffffffffffffffffffff1673ffffffffffffffffffffffffffffffffffffffff1681526020019081526020016000206000828254612db59190613e29565b92505081905550816003600083815260200190815260200160002060006101000a81548173ffffffffffffffffffffffffffffffffffffffff021916908373ffffffffffffffffffffffffffffffffffffffff160217905550808273ffffffffffffffffffffffffffffffffffffffff16600073ffffffffffffffffffffffffffffffffffffffff167fddf252ad1be2c89b69c2b068fc378daa952ba7f163c4a11628f55a4df523b3ef60405160405180910390a4612e7660008383612c9b565b5050565b6000612e858361318f565b15612fec578273ffffffffffffffffffffffffffffffffffffffff1663eeafbddc612eae612354565b86856040518463ffffffff1660e01b8152600401612ece939291906140a5565b602060405180830381600087803b158015612ee857600080fd5b505af1925050508015612f1957506040513d601f19601f82011682018060405250810190612f169190614734565b60015b612f9c573d8060008114612f49576040519150601f19603f3d011682016040523d82523d6000602084013e612f4e565b606091505b50600081511415612f94576040517f08c379a0000000000000000000000000000000000000000000000000000000008152600401612f8b90614596565b60405180910390fd5b805181602001fd5b63150b7a0260e01b7bffffffffffffffffffffffffffffffffffffffffffffffffffffffff1916817bffffffffffffffffffffffffffffffffffffffffffffffffffffffff191614915050612ff1565b600190505b9392505050565b60006130198473ffffffffffffffffffffffffffffffffffffffff166131b2565b15613182578373ffffffffffffffffffffffffffffffffffffffff1663150b7a02613042612354565b8786866040518563ffffffff1660e01b815260040161306494939291906147b6565b602060405180830381600087803b15801561307e57600080fd5b505af19250505080156130af57506040513d601f19601f820116820180604052508101906130ac9190614734565b60015b613132573d80600081146130df576040519150601f19603f3d011682016040523d82523d6000602084013e6130e4565b606091505b5060008151141561312a576040517f08c379a000000000000000000000000000000000000000000000000000000000815260040161312190614596565b60405180910390fd5b805181602001fd5b63150b7a0260e01b7bffffffffffffffffffffffffffffffffffffffffffffffffffffffff1916817bffffffffffffffffffffffffffffffffffffffffffffffffffffffff191614915050613187565b600190505b949350505050565b6000808273ffffffffffffffffffffffffffffffffffffffff163b119050919050565b6000808273ffffffffffffffffffffffffffffffffffffffff163b119050919050565b6000604051905090565b600080fd5b600080fd5b60007fffffffff0000000000000000000000000000000000000000000000000000000082169050919050565b61321e816131e9565b811461322957600080fd5b50565b60008135905061323b81613215565b92915050565b600060208284031215613257576132566131df565b5b60006132658482850161322c565b91505092915050565b60008115159050919050565b6132838161326e565b82525050565b600060208201905061329e600083018461327a565b92915050565b600081519050919050565b600082825260208201905092915050565b60005b838110156132de5780820151818401526020810190506132c3565b838111156132ed576000848401525b50505050565b6000601f19601f8301169050919050565b600061330f826132a4565b61331981856132af565b93506133298185602086016132c0565b613332816132f3565b840191505092915050565b600060208201905081810360008301526133578184613304565b905092915050565b6000819050919050565b6133728161335f565b811461337d57600080fd5b50565b60008135905061338f81613369565b92915050565b6000602082840312156133ab576133aa6131df565b5b60006133b984828501613380565b91505092915050565b600073ffffffffffffffffffffffffffffffffffffffff82169050919050565b60006133ed826133c2565b9050919050565b6133fd816133e2565b82525050565b600060208201905061341860008301846133f4565b92915050565b613427816133e2565b811461343257600080fd5b50565b6000813590506134448161341e565b92915050565b60008060408385031215613461576134606131df565b5b600061346f85828601613435565b925050602061348085828601613380565b9150509250929050565b6000602082840312156134a05761349f6131df565b5b60006134ae84828501613435565b91505092915050565b6000806000606084860312156134d0576134cf6131df565b5b60006134de86828701613435565b93505060206134ef86828701613435565b925050604061350086828701613380565b9150509250925092565b600081519050919050565b600082825260208201905092915050565b6000819050602082019050919050565b61353f8161335f565b82525050565b60006135518383613536565b60208301905092915050565b6000602082019050919050565b60006135758261350a565b61357f8185613515565b935061358a83613526565b8060005b838110156135bb5781516135a28882613545565b97506135ad8361355d565b92505060018101905061358e565b5085935050505092915050565b600060208201905081810360008301526135e2818461356a565b905092915050565b6135f38161335f565b82525050565b600060208201905061360e60008301846135ea565b92915050565b6000806040838503121561362b5761362a6131df565b5b600061363985828601613380565b925050602061364a85828601613435565b9150509250929050565b61365d8161326e565b811461366857600080fd5b50565b60008135905061367a81613654565b92915050565b60008060408385031215613697576136966131df565b5b60006136a585828601613435565b92505060206136b68582860161366b565b9150509250929050565b600080fd5b600080fd5b7f4e487b7100000000000000000000000000000000000000000000000000000000600052604160045260246000fd5b613702826132f3565b810181811067ffffffffffffffff82111715613721576137206136ca565b5b80604052505050565b60006137346131d5565b905061374082826136f9565b919050565b600067ffffffffffffffff8211156137605761375f6136ca565b5b613769826132f3565b9050602081019050919050565b82818337600083830152505050565b600061379861379384613745565b61372a565b9050828152602081018484840111156137b4576137b36136c5565b5b6137bf848285613776565b509392505050565b600082601f8301126137dc576137db6136c0565b5b81356137ec848260208601613785565b91505092915050565b6000806000806080858703121561380f5761380e6131df565b5b600061381d87828801613435565b945050602061382e87828801613435565b935050604061383f87828801613380565b925050606085013567ffffffffffffffff8111156138605761385f6131e4565b5b61386c878288016137c7565b91505092959194509250565b6000806040838503121561388f5761388e6131df565b5b600061389d85828601613435565b92505060206138ae85828601613435565b9150509250929050565b60006080820190506138cd60008301876135ea565b6138da60208301866135ea565b6138e760408301856135ea565b6138f4606083018461327a565b95945050505050565b7f4e487b7100000000000000000000000000000000000000000000000000000000600052602260045260246000fd5b6000600282049050600182168061394457607f821691505b60208210811415613958576139576138fd565b5b50919050565b7f4552433732313a20617070726f76616c20746f2063757272656e74206f776e6560008201527f7200000000000000000000000000000000000000000000000000000000000000602082015250565b60006139ba6021836132af565b91506139c58261395e565b604082019050919050565b600060208201905081810360008301526139e9816139ad565b9050919050565b7f4552433732313a20617070726f76652063616c6c6572206973206e6f7420746f60008201527f6b656e206f776e6572206e6f7220617070726f76656420666f7220616c6c0000602082015250565b6000613a4c603e836132af565b9150613a57826139f0565b604082019050919050565b60006020820190508181036000830152613a7b81613a3f565b9050919050565b7f4e487b7100000000000000000000000000000000000000000000000000000000600052603260045260246000fd5b7f4552433732313a2063616c6c6572206973206e6f7420746f6b656e206f776e6560008201527f72206e6f7220617070726f766564000000000000000000000000000000000000602082015250565b6000613b0d602e836132af565b9150613b1882613ab1565b604082019050919050565b60006020820190508181036000830152613b3c81613b00565b9050919050565b7f4e487b7100000000000000000000000000000000000000000000000000000000600052601160045260246000fd5b6000613b7d8261335f565b91507fffffffffffffffffffffffffffffffffffffffffffffffffffffffffffffffff821415613bb057613baf613b43565b5b600182019050919050565b7f4552433732313a20696e76616c696420746f6b656e2049440000000000000000600082015250565b6000613bf16018836132af565b9150613bfc82613bbb565b602082019050919050565b60006020820190508181036000830152613c2081613be4565b9050919050565b7f4552433732313a2061646472657373207a65726f206973206e6f74206120766160008201527f6c6964206f776e65720000000000000000000000000000000000000000000000602082015250565b6000613c836029836132af565b9150613c8e82613c27565b604082019050919050565b60006020820190508181036000830152613cb281613c76565b9050919050565b6000819050919050565b6000819050919050565b6000613ce8613ce3613cde84613cb9565b613cc3565b61335f565b9050919050565b613cf881613ccd565b82525050565b6000604082019050613d1360008301856135ea565b613d206020830184613cef565b9392505050565b7f596f7520686176652030206e66747320746f207472616e736665722e00000000600082015250565b6000613d5d601c836132af565b9150613d6882613d27565b602082019050919050565b60006020820190508181036000830152613d8c81613d50565b9050919050565b7f596f7520617265206e6f7420746865206f776e65722e00000000000000000000600082015250565b6000613dc96016836132af565b9150613dd482613d93565b602082019050919050565b60006020820190508181036000830152613df881613dbc565b9050919050565b6000613e0a8261335f565b91506000821415613e1e57613e1d613b43565b5b600182039050919050565b6000613e348261335f565b9150613e3f8361335f565b9250827fffffffffffffffffffffffffffffffffffffffffffffffffffffffffffffffff03821115613e7457613e73613b43565b5b828201905092915050565b6000604082019050613e9460008301856135ea565b613ea160208301846135ea565b9392505050565b600081905092915050565b6000613ebe826132a4565b613ec88185613ea8565b9350613ed88185602086016132c0565b80840191505092915050565b6000613ef08285613eb3565b9150613efc8284613eb3565b91508190509392505050565b6000604082019050613f1d60008301856133f4565b613f2a60208301846133f4565b9392505050565b600081519050613f4081613369565b92915050565b600060208284031215613f5c57613f5b6131df565b5b6000613f6a84828501613f31565b91505092915050565b7f4e6f7420656e6f7567687420636f696e73206f7220616c6c6f77616e63652e00600082015250565b6000613fa9601f836132af565b9150613fb482613f73565b602082019050919050565b60006020820190508181036000830152613fd881613f9c565b9050919050565b7f42616c616e6365206e6f7420656e6f756768742e000000000000000000000000600082015250565b60006140156014836132af565b915061402082613fdf565b602082019050919050565b6000602082019050818103600083015261404481614008565b9050919050565b60006140568261335f565b91506140618361335f565b9250817fffffffffffffffffffffffffffffffffffffffffffffffffffffffffffffffff048311821515161561409a57614099613b43565b5b828202905092915050565b60006060820190506140ba60008301866133f4565b6140c760208301856133f4565b6140d460408301846135ea565b949350505050565b6000815190506140eb81613654565b92915050565b600060208284031215614107576141066131df565b5b6000614115848285016140dc565b91505092915050565b7f5472616e73666572204661696c65642e00000000000000000000000000000000600082015250565b60006141546010836132af565b915061415f8261411e565b602082019050919050565b6000602082019050818103600083015261418381614147565b9050919050565b7f596f75206172656e74206120636f6e74726163742e0000000000000000000000600082015250565b60006141c06015836132af565b91506141cb8261418a565b602082019050919050565b600060208201905081810360008301526141ef816141b3565b9050919050565b7f4f776e61626c653a206e6577206f776e657220697320746865207a65726f206160008201527f6464726573730000000000000000000000000000000000000000000000000000602082015250565b60006142526026836132af565b915061425d826141f6565b604082019050919050565b6000602082019050818103600083015261428181614245565b9050919050565b7f4552433732313a207472616e736665722066726f6d20696e636f72726563742060008201527f6f776e6572000000000000000000000000000000000000000000000000000000602082015250565b60006142e46025836132af565b91506142ef82614288565b604082019050919050565b60006020820190508181036000830152614313816142d7565b9050919050565b7f4552433732313a207472616e7366657220746f20746865207a65726f2061646460008201527f7265737300000000000000000000000000000000000000000000000000000000602082015250565b60006143766024836132af565b91506143818261431a565b604082019050919050565b600060208201905081810360008301526143a581614369565b9050919050565b60006143b78261335f565b91506143c28361335f565b9250828210156143d5576143d4613b43565b5b828203905092915050565b7f4f776e61626c653a2063616c6c6572206973206e6f7420746865206f776e6572600082015250565b60006144166020836132af565b9150614421826143e0565b602082019050919050565b6000602082019050818103600083015261444581614409565b9050919050565b7f6e6f7420746f6461790000000000000000000000000000000000000000000000600082015250565b60006144826009836132af565b915061448d8261444c565b602082019050919050565b600060208201905081810360008301526144b181614475565b9050919050565b7f4552433732313a20617070726f766520746f2063616c6c657200000000000000600082015250565b60006144ee6019836132af565b91506144f9826144b8565b602082019050919050565b6000602082019050818103600083015261451d816144e1565b9050919050565b7f4552433732313a207472616e7366657220746f206e6f6e20455243373231526560008201527f63656976657220696d706c656d656e7465720000000000000000000000000000602082015250565b60006145806032836132af565b915061458b82614524565b604082019050919050565b600060208201905081810360008301526145af81614573565b9050919050565b7f4e487b7100000000000000000000000000000000000000000000000000000000600052601260045260246000fd5b60006145f08261335f565b91506145fb8361335f565b92508261460b5761460a6145b6565b5b828204905092915050565b60006146218261335f565b915061462c8361335f565b92508261463c5761463b6145b6565b5b828206905092915050565b7f4552433732313a206d696e7420746f20746865207a65726f2061646472657373600082015250565b600061467d6020836132af565b915061468882614647565b602082019050919050565b600060208201905081810360008301526146ac81614670565b9050919050565b7f4552433732313a20746f6b656e20616c7265616479206d696e74656400000000600082015250565b60006146e9601c836132af565b91506146f4826146b3565b602082019050919050565b60006020820190508181036000830152614718816146dc565b9050919050565b60008151905061472e81613215565b92915050565b60006020828403121561474a576147496131df565b5b60006147588482850161471f565b91505092915050565b600081519050919050565b600082825260208201905092915050565b600061478882614761565b614792818561476c565b93506147a28185602086016132c0565b6147ab816132f3565b840191505092915050565b60006080820190506147cb60008301876133f4565b6147d860208301866133f4565b6147e560408301856135ea565b81810360608301526147f7818461477d565b90509594505050505056fea2646970667358221220241ab8b78e1de2dc96054abced8261a6702d660183c27aab89ffff1d9519513e64736f6c63430008090033",
  "linkReferences": {},
  "deployedLinkReferences": {}
}